:10000000ABC10000DAC10000D8C10000D6C10000B9
:10001000D4C10000D2C10000D0C10000CEC1000098
:10002000CCC10000CAC10000C8C10000C6C10000A8
:10003000C4C10000C2C10000C0C10000BEC10000B8
:10004000BCC10000BAC10000B8C10000B6C10000C8
:10005000B4C10000B2C10000B0C100000C9410197E
:10006000ACC100000C94AA1C0C94E01CA6C10000BA
:10007000A4C10000A2C10000A0C100009EC10000F8
:100080009CC100009AC1000098C1000096C1000008
:100090000C94551D0C948B1D90C100008EC1000066
:1000A0008CC100008AC1000088C1000086C1000028
:1000B00084C1000082C1000080C100007EC1000038
:1000C0007CC100007AC1000078C1000076C1000048
:1000D00074C1000072C1000070C100006EC1000058
:1000E0006CC10000110616061C061E0626063F06F9
:1000F00048065A065E06AA0CB70C1B0D1B0DD80C41
:10010000E40CF00C1B0D1B0D070D0D0D130D6B1AE0
:100110006E1A5D1A611A671AA51A721A761A7C1A73
:10012000801A841A8A1A8E1A921AA51A981A9C1A78
:10013000A01A00000A0B02090C0D0E0807030401A7
:1001400000000000000000000000000000000000AF
:10015000000000000000000000000000000012117C
:10016000100000000000000000000000000000007F
:10017000000000000000000001021020200808100C
:100180002040102040800201020108040201010207
:1001900004081020408080402010080402018004E0
:1001A000020180402010080402010804020101023B
:1001B000040810204080010204081020408005053A
:1001C0000505070508080808020202020A0A0808CD
:1001D00004040404010101010101010103030303FB
:1001E00003030303040707070C0C0C0C0C0C0C0C8A
:1001F0000202020206060606060606060B0B0B0B9B
:100200000B0B0B0B000020002300260029002C0004
:100210002F00320000010000030106010901000067
:100220002200250028002B002E003100340002019E
:100230000000050108010B01000021002400270037
:100240002A002D00300033000101000004010701E5
:100250000A0100407A10F35A00A0724E18090010EB
:10026000A5D4E80000E87648170000E40B5402002B
:1002700000CA9A3B000000E1F50500008096980056
:10028000000040420F000000A0860100000010277F
:1002900000000000E803000000006400000000000F
:1002A0000A00000000000100000000002C76D88841
:1002B000DC674F0823DFC1DFAE59E1B1B796E5E354
:1002C000E453C63AE651997696E8E6C28426EB896D
:1002D0008C9B62ED407C6FFCEFBC9C9F40F2BAA50A
:1002E0006FA5F490055A2AF75C936B6CF9676DC1A2
:1002F0001BFCE0E40D47FEF520E6B500D0ED902EA6
:100300000300943577050080841E080000204E0A03
:10031000000000C80C333333330F986E1283114141
:10032000EF8D2114893BE65516CFFEE6DB18D1840C
:100330004B381BF77C1D901DA4BBE4242032847233
:100340005E228100C9F124ECA1E53D27DC02DF102B
:10035000121DBD1D7E03931111241FBECFEFD1E2EC
:10036000DEBFCDBF00E00CBF13E0A0E0B2E0E0E0F4
:10037000F5E500E00BBF02C007900D92A638B1076B
:10038000D9F727E0A6E8B3E001C01D92AE37B20767
:10039000E1F713E0C4E5D3E000E006C022970109CD
:1003A000FE010BBF0E94F023CC34D10780E0080788
:1003B000A9F70E94011E0C946F2A22CECF92DF92E1
:1003C000EF92FF920F931F93CF93DF9300D01F9272
:1003D0001F92CDB7DEB782E395E00E94400C8BEF11
:1003E00094E08DD540E050E069E285E394E0BCD232
:1003F00082E594E0EED285E296E00E946C1860E01F
:100400008AE20E94DF1A61E08AE20E94A61A60E096
:100410008CE20E94DF1A61E08CE20E94A61A60E082
:100420008EE20E94DF1A61E08EE20E94A61A8E011F
:100430000F5F1F4F80E3E82EF12C6801C7010E9477
:10044000F127F80181938F01FFEFEF1AFF0A86E38E
:10045000E816F10499F785E0F601A2E9B3E001900E
:100460000D928A95E1F70F900F900F900F900F90DB
:10047000DF91CF911F910F91FF90EF90DF90CF9080
:1004800008950F931F930E945A19609386037093E7
:10049000870380938803909389038BEF94E0DCD7E4
:1004A00082E395E00E94BE1187E993E00E94F21773
:1004B00020919403409193036091920387E993E024
:1004C0000E941F1887E993E00E94F3170E945A19AF
:1004D00000918E0310918F0320919003309191032E
:1004E000601B710B820B930B683E73408105910575
:1004F00070F00E945A1960938E0370938F0380935B
:1005000090039093910385E394E04CD22DC00E9418
:100510005A1900918A0310918B0320918C0330911A
:100520008D03601B710B820B930B64367105810583
:100530009105D0F00E945A1960938A0370938B033F
:1005400080938C0390938D0385E296E00E9492182D
:1005500082E594E016D38091BE0481111092BE040E
:1005600082E395E00E94E30D0E945A1900918603F0
:10057000109187032091880330918903601B710BD0
:10058000820B930B633071058105910590F40E94F5
:100590005A190091860310918703209188033091A6
:1005A0008903601B710B820B930B1F910F910C94AD
:1005B00089191F910F91089565E172E08BEA93E02C
:1005C0000E94E41E6DE172E081EB93E00E94E41E64
:1005D00065E272E087EB93E00E94E41E6DE272E058
:1005E0008DEB93E00E94E41E6EE372E083EC93E0F7
:1005F0000E94E41E6BE472E089EC93E00E94E41E2A
:100600006DE572E08FEC93E00E94E41E6AE672E012
:1006100085ED93E00E94E41E62E772E08BED93E0CB
:100620000E94E41E6BE772E081EE93E00E94E41EFC
:1006300065E872E087EE93E00E94E41E61E972E0F3
:100640008DEE93E00E94E41E6AE972E083EF93E08E
:100650000E94E41E68EA72E089EF93E00E94E41EC3
:1006600063EB72E08FEF93E00E94E41E6DEB72E0AB
:1006700085E094E00E94E41E6CEC72E08BE094E074
:100680000E94E41E6AED72E081E194E00E94E41EA3
:1006900066EE72E087E194E00E94E41E6EEE72E086
:1006A0008DE194E00E94E41E66EF72E083E294E044
:1006B0000E94E41E6EEF72E089E294E00E94E41E64
:1006C00068E073E08FE294E00E94E41E61E173E071
:1006D00089E993E00E94E41E62E272E08FE993E010
:1006E0000E94E41E65E173E085EA93E00E94E41E47
:1006F00045E263E287E993E00C94C417CF93DF935C
:1007000085EA93E00E947C1E8FE993E00E947C1EA4
:1007100089E993E00E947C1EC5E3D4E02697CE01D0
:100720000E947C1E83E0CB3AD807C1F7DF91CF91BE
:100730000895CF93DF93EC010E945A19685B7B40C8
:10074000810991096D8B7E8B8F8B988FDF91CF9173
:1007500008952F923F924F925F926F927F928F9265
:100760009F92AF92BF92CF92DF92EF92FF920F9340
:100770001F93CF93DF931F92CDB7DEB71C010E946A
:100780005A19F10185889688A788B08C2B013C0105
:10079000481859086A087B082189328921303105B7
:1007A00039F447EE842E43E0942EA12CB12C06C0E0
:1007B0003FEC832E37E0932EA12CB12C4814590422
:1007C0006A047B0408F4BCC0F101658B768B878BCF
:1007D000908F80E090E0A0ECBFE780879187A287B0
:1007E000B38784879587A687B78760E080890E9452
:1007F000DF1A61E0F10180890E94A61AF101818966
:100800009289019739F462E170E080E090E00E9403
:10081000891904C080E293E00E94C01960E0F101F0
:1008200080890E94A61A61E0F10180890E94DF1A86
:100830002DEF922E0E946619762EF92DF1708F2ED3
:10084000AF2EBB24A7FCB0940E94661967196B35C4
:1008500018F081E090E02FC0F101808969830E9447
:10086000141B69818A159B0579F397FC07C08820C2
:1008700029F0000F111F6F3108F00160FFE19F1692
:1008800039F08FE3981205C0780100E010E001C054
:1008900068019394E0E59E12CDCF6D2D7727AF2CA4
:1008A000B12C8E2D8C0D860F8F0D90E08017910747
:1008B00031F082E090E0F101948B838B41C0F10133
:1008C00081899289019779F480E090E00E947422F6
:1008D000F1016487758786879787B50180E090E08E
:1008E0000E94742225C0B60180E090E00E9474222C
:1008F0002DEC3CEC4CEC5DE30E940223F10164879B
:10090000758786879787C70197FF05C09F77EE2475
:10091000FF24E81AF90AB701882777FD8095982FF8
:100920000E9476222DEC3CEC4CEC5DE30E9402230D
:10093000F1016087718782879387F101148A138A96
:100940000F90DF91CF911F910F91FF90EF90DF906B
:10095000CF90BF90AF909F908F907F906F905F905F
:100960004F903F902F9008950F931F93CF93DF9355
:10097000EC018A01688B5A8B498BDBDE012B69F411
:1009800082E090E09A8B898BCE01E3DE8B899C8993
:100990008130910511F49A8B898BDF91CF911F9152
:1009A0000F910895CF93DF93EC01D3DE4C855D85E5
:1009B0006E857F854C835D836E837F8348855985F3
:1009C0006A857B85488359836A837B83DF91CF91D6
:1009D0000895CF93DF93EC01188219821A82FC01EB
:1009E000E459FF4F108231971082329610820E9494
:1009F0005A19CA5BDF4F688379838A839B8326E019
:100A000040E056E960E070E08BED96E0DF91CF9139
:100A10000C944A1CFB01608171818281938108954D
:100A2000FF920F931F93CF93DF93EC01FB8081E044
:100A3000F81299C08C81833009F46DC008F03CC075
:100A4000823009F090C0BE01685F7F4FCE01E2DFC7
:100A5000FE01E25BFF4F6083718382839383BE015B
:100A6000645F7F4FCE01D6DFFE01EA5AFF4F6083FD
:100A7000718382839383BE01605F7F4FCE01CADFA3
:100A8000FE01EE5AFF4F6083718382839383BE0120
:100A9000685E7F4FCE01BEDF8E01065A1F4F0E9457
:100AA00076220E944322F8016083718382839383BC
:100AB000C459DF4FF88257C08630D1F1823109F036
:100AC00052C0BE01685E7F4FCE01A4DFFE01EE5929
:100AD000FF4F6083718382839383BE01645E7F4F87
:100AE000CE0198DFFE01E25AFF4F6083718382835B
:100AF0009383BE01605E7F4FCE018CDFCA59DF4F0A
:100B000028EE33E040E050E00E94A9232883398397
:100B10004A835B8328C08C85FE01E559FF4F8330F3
:100B200028F08D8580FF02C0F0821DC010821BC09E
:100B30008A89FE01E559FF4F833028F08B8980FFB9
:100B400002C0F08201C01082BE01645D7F4FCE0101
:100B500061DFFE01E65BFF4F6083718382839383D5
:100B6000B0968FA98083DF91CF911F910F91FF9055
:100B70000895FC018081680F60838181860F8183E5
:100B800008955F926F927F928F929F92AF92BF92E1
:100B9000CF92DF92EF92FF920F931F93CF93DF9349
:100BA000EC018BED96E00E943C1B7C0118161906A7
:100BB000ACF00E945A1900914E0410914F042091FC
:100BC000500430915104601B710B820B930B613DFB
:100BD00077408105910508F09CC0B9C000E010E0A5
:100BE0004E0185E4880E911C6E01E4E4CE0ED11C0A
:100BF0005E01FDE6AF0EB11C88E0782E92E0692E12
:100C0000552453948BED96E00E94551B4A8150E089
:100C10004930510508F076C0FA01EE58FF4F0C94A8
:100C2000C523853B09F06EC05A826CC0823611F430
:100C30006A8268C01A8266C08B8301C08C83682F69
:100C4000CE0197DF8A818F5F8A835CC08D83682F96
:100C5000CE018FDF8A818F5F8A838D818C3308F488
:100C600051C0F5018081882331F06CE173E08EE39F
:100C700096E00E946C1E1A821882198243C08E83ED
:100C8000682FCE0176DF8A818F5F8A831F823AC008
:100C90009F812D819217B0F5FE01E90FF11D80872C
:100CA000682FCE0166DF8F818F5F8F839D818913CF
:100CB00029C0C8CFF60180837A8224C0F4018083E2
:100CC0002881F6019081291306C09981981303C0E9
:100CD000CE01A6DE0AC0F5018081882331F069E3E8
:100CE00073E08EE396E00E946C1E1A8218821982CD
:100CF0000E945A1960934E0470934F0480935004DD
:100D0000909351040F5F1F4F0E151F0509F07ACF06
:100D100050CFFE01E559FF4F1082C359DF4F888144
:100D20008823A9F067E473E08EE396E0DF91CF912A
:100D30001F910F91FF90EF90DF90CF90BF90AF90F9
:100D40009F908F907F906F905F900C946C1EDF91BE
:100D5000CF911F910F91FF90EF90DF90CF90BF90B8
:100D6000AF909F908F907F906F905F9008951092BA
:100D7000B9008CE08093B80084E08093BC000895B3
:100D80008FEF90E02091BC0027FD05C00197D1F7BF
:100D90001092BC0008950895EF92FF920F931F9355
:100DA000CF93DF931F92CDB7DEB78C018CEBE82E8B
:100DB000F12C84EAF7018083C8016983E1DF69814E
:100DC0006093BB0084E8F7018083C8010F90DF9136
:100DD000CF911F910F91FF90EF90D2CF6093BB0006
:100DE00024E82093BC00CCCF0F931F93CF93DF93C5
:100DF0001F921F92CDB7DEB78C01660F2A834983FD
:100E0000CBDF4981642FC801E9DF2A81622FC80145
:100E1000E5DF84E98093BC000F900F90DF91CF91C4
:100E20001F910F910895CF93DF931F92CDB7DEB737
:100E3000662311F024EC01C024E82093BC006983F0
:100E40009FDF8091BB006981611103C094E9909399
:100E5000BC000F90DF91CF910895CF92DF92FF9267
:100E60000F931F93CF93DF931F921F92CDB7DEB7DF
:100E70008C01F22E660F616049835A838DDFFA94EC
:100E80004981C42E5A81D52EFFEFFF1659F061E03B
:100E9000F11001C060E0C801C6DFF60181936F0167
:100EA000FA94F2CF0F900F90DF91CF911F910F9195
:100EB000FF90DF90CF900895CF92DF92EF92FF9254
:100EC0000F931F93CF93DF931F92CDB7DEB76C01C3
:100ED000162F7901660F49835FDF4981642FC601B0
:100EE0007DDF202FA701612FC6010F90DF91CF91E9
:100EF0001F910F91FF90EF90DF90CF90AECF0F93A7
:100F00001F93CF93DF9300D000D0CDB7DEB78C0115
:100F10008BE096E00E94B417F80115AA14AA13AA50
:100F200012AA11AA10AA00E012E0BE016F5F7F4F63
:100F30008BE096E00E94ED1165E070E080E090E0CB
:100F40000E9489190150110981F726960FB6F8946D
:100F5000DEBF0FBECDBFDF91CF911F910F910895DE
:100F60002F923F924F925F926F927F928F929F92B9
:100F7000AF92BF92CF92DF92EF92FF920F931F93A7
:100F8000CF93DF93CDB7DEB76A970FB6F894DEBF85
:100F90000FBECDBF9A8B898B0E9466196B017C01B5
:100FA0008091F5049091F604B601681B790B80E0FE
:100FB00090E00E94742229E134E442E951E30E9466
:100FC00002232B013C01D092F604C092F5048E015D
:100FD0000F5F1F4FA6E08A2EA2E09A2EA988BA883A
:100FE000C12CD12C76011D861801D5015E966D911C
:100FF0007C915F97882777FD8095982F0E947622B5
:10100000A30192010E940223F801619371938193DD
:1010100091938F01F40180819181A281B381AC0110
:10102000BD01E4E07595679557954795EA95D1F729
:10103000841B950BA60BB70BF501408D518D6627D0
:1010400057FD6095762F840F951FA61FB71FF401DB
:1010500081939193A193B1934F01F4E0B595A79536
:1010600097958795FA95D1F7F501958784879C0127
:10107000DC010E94CB23C60ED71EE81EF91EFD859B
:10108000FF5FFD8782E0A80EB11CF33009F0ADCF01
:10109000B10189EE94E041D3B1018DED94E03DD3EF
:1010A000A4E6B0E0A70196010E94E62320E030E02C
:1010B00044E050E00E94A923490199E4891A91086B
:1010C00089EEE82E84E0F82E91EDA92E94E0B92E59
:1010D0002DEDC22E24E0D22E35EC232E34E0332E1B
:1010E00009891A891D86ACE38A16910448F520E027
:1010F00030E046E154E4F70160817181828193819F
:101100000E9402232B013C01D8011C966D917C9119
:101110001D97882777FD8095982F0E9476229B0146
:10112000AC01C301B2010E94772120E037E14AED12
:101130005AE30E940223F7016083718382839383C1
:10114000D7016D917D918D919D917D010E944322EA
:10115000F50161937193819391935F0120E030E0F9
:101160004AE753E4D6016D917D918D919C910E9447
:1011700002232B013C01F80162897389882777FDDE
:101180008095982F0E9476229B01AC01C301B20189
:101190000E94772120EC3CE842E85BE30E940223B6
:1011A000D6016D937D938D939D936D010E94432293
:1011B000F10161937193819391931F01FD85FF5F0D
:1011C000FD870E5F1F4FF33009F08DCF6091D10482
:1011D0007091D2048091D3049091D4048090D9046A
:1011E0009090DA04A090DB04B090DC049B01AC0189
:1011F0000E9465236B017C01A5019401C501B40126
:101200000E946523C60ED71EE81EF91E6091D50404
:101210007091D6048091D7049091D8049B01AC01C1
:101220000E9465236C0D7D1D8E1D9F1D0E947622E0
:1012300025D26093C1047093C2048093C304909339
:10124000C4042091D9043091DA044091DB04509118
:10125000DC046091D1047091D2048091D304909108
:10126000D4045BD1BC01882777FD8095982F0E941C
:10127000762220E030E040E251E40E94DB21A9899F
:10128000BA896D937D938D939C931397C701B60193
:101290000E9476226B017C01F1D1A70196010E9488
:1012A00002230E9443229B01AC016091D5047091FE
:1012B000D6048091D7049091D8042FD1BC018827FF
:1012C00077FD8095982F0E94762220E030E040E262
:1012D00051E40E94DB21E989FA896483758386835E
:1012E00097838091C5049091C604A091C704B091E2
:1012F000C8048D879E87AF87B88B8090D10490906B
:10130000D204A090D304B090D4044090CD04509067
:10131000CE046090CF047090D0048091D904909155
:10132000DA04A091DB04B091DC048B8B9C8BAD8B39
:10133000BE8B2091E1043091E2044091E30450918E
:10134000E404C701B6010E9402236F8B788F898F56
:101350009A8F2D853E854F855889C501B4010E941D
:1013600065236B017C01A30192016B897C898D89C6
:101370009E890E946523C60ED71EE81EF91EC7016E
:10138000B6010E9476222091ED043091EE04409146
:10139000EF045091F0040E9402239B01AC016F897D
:1013A000788D898D9A8D0E9476212091C10430918B
:1013B000C2044091C3045091C4040E9402230E94BD
:1013C00043226B017C01A3019201C501B4010E947B
:1013D00065234B015C012D853E854F8558896B89BE
:1013E0007C898D899E890E946523861A970AA80A9E
:1013F000B90AA7019601C501B4018FD0BC018827A5
:1014000077FD8095982F0E94762220E030E040E220
:1014100051E40E94DB21A989BA8918966D937D93C6
:101420008D939C931B976A960FB6F894DEBF0FBE00
:10143000CDBFDF91CF911F910F91FF90EF90DF9083
:10144000CF90BF90AF909F908F907F906F905F9064
:101450004F903F902F9008950F931F93CF93DF935A
:10146000EC010E945A190091F7041091F8042091A0
:10147000F9043091FA04601B710B820B930B6436F4
:1014800071058105910588F0BE016E5E7F4F8BE08E
:1014900096E00E9418140E945A196093F704709302
:1014A000F8048093F9049093FA04BE01685E7F4FBC
:1014B0008BE096E00E94AB13CE0152DDBE01665D6B
:1014C0007F4F8BE096E089D78AE892E00E94C019AE
:1014D000BE01605D7F4F8BE096E07FD740E0E3E0A8
:1014E000F0E028A939A98AA59BA5280F391F8CA14E
:1014F0009DA1820F931FBF010E9474237F8F6E8F67
:10150000359527953DA32CA34F5F2296433049F78D
:10151000DF91CF911F910F9108954F925F926F923B
:101520007F928F929F92AF92BF92CF92DF92EF9273
:10153000FF92CF93DF9300D01F92CDB7DEB76B0140
:101540007C0129013A010E9476224B015C01C30112
:10155000B2010E9476229B01AC01C501B4010E9438
:10156000DB214B015C01B701A601F7FE07C0442750
:101570005527BA014C195D096E097F09D301C201D3
:1015800077FE07C088279927DC0184199509A609E9
:10159000B709481759076A077B078CF520E030E444
:1015A0004FE054E4C501B4010E94022369837A83A9
:1015B0008B839C8329E23CE54FE85EE3C501B401DF
:1015C0000E940223A50194010E94022320E030E042
:1015D00040E85FE30E9477219B01AC0169817A8139
:1015E0008B819C810E94DB210E9443229B0177FE1C
:1015F00031C0F7FC2DC09B01285F384F2BC020E085
:1016000030E44FE054E4C501B4010E9402232B01F1
:101610003C01A5019401C501B4010E94022329E205
:101620003CE54FE85EE30E9477219B01AC01C301DA
:10163000B2010E94DB219B01AC0160E070E081E619
:1016400094E40E9476210E9443229B01F7FE02C08F
:1016500028503740C9010F900F900F900F90DF91E5
:10166000CF91FF90EF90DF90CF90BF90AF909F9081
:101670008F907F906F905F904F9008954F925F9200
:101680006F927F928F929F92AF92BF92CF92DF9292
:10169000EF92FF924B015C01DC01CB01B595A79560
:1016A000979587953FEDC32E39E5D32E37E3E32E8B
:1016B0003FE5F32EC81AD90AEA0AFB0A20E030E017
:1016C00040E05FE3C701B6010E9402232B013C0109
:1016D000A7019601C501B4010E940223A70196014A
:1016E0000E9402239B01AC0160E070E080E490E482
:1016F0000E9476219B01AC01C301B2010E9402232A
:10170000FF90EF90DF90CF90BF90AF909F908F9021
:101710007F906F905F904F9008952F923F924F92DD
:101720005F926F927F928F929F92AF92BF92CF9271
:10173000DF92EF92FF920F931F93CF93DF9300D02E
:101740001F92CDB7DEB78C011B01FC018080918018
:10175000A280B380C480D580E680F7804084518425
:1017600062847384FB012081318142815381C501F0
:10177000B4010E94022369837A838B839C83F101E5
:101780002481358146815781C701B6010E94022319
:101790009B01AC0169817A818B819C810E947721B8
:1017A0009B01AC01C301B2010E947621F801608760
:1017B000718782879387F101208131814281538132
:1017C000C301B2010E94022369837A838B839C83C5
:1017D000F1012085318542855385C701B6010E94FC
:1017E00002239B01AC0169817A818B819C810E94DB
:1017F00076219B01AC01C501B4010E947721F8015B
:101800006083718382839383F101248135814681D2
:101810005781C301B2010E9402232B013C01F10157
:101820002085318542855385C501B4010E9402237C
:101830009B01AC01C301B2010E9477219B01AC0165
:10184000C701B6010E947721F801648375838683FE
:1018500097830F900F900F900F90DF91CF911F9172
:101860000F91FF90EF90DF90CF90BF90AF909F903F
:101870008F907F906F905F904F903F902F90089542
:101880000F931F93CF93DF93EC0126E040E052ECDF
:1018900061E070E08EE396E00E944A1C64E670E02E
:1018A000CE010E94AA1E8E010A5F1F4F64E670E0FF
:1018B000C8010E94AA1E66E773E0C8010E94391F92
:1018C0000A5F1F4F64E170E0C8010E94AA1E66E72C
:1018D00073E0C8010E94391F0A5F1F4F64E170E086
:1018E000C8010E94AA1E66E773E0C8010E94391F62
:1018F000188EDF91CF911F910F910895AF92BF92F3
:10190000CF92DF92EF92FF920F931F93CF93DF93CB
:101910007C015B01EA018DE5C82E85E0D82E00E050
:1019200010E0B601C5010E94AD2096E0C90ED11CA1
:10193000811106C00F5F1F4F0731110591F77BC062
:10194000F8013B97EC30F10508F075C0E558FF4F02
:101950000C94C5238BE096E0DF91CF911F910F91FE
:10196000FF90EF90DF90CF90BF90AF900AC662E2F9
:1019700072E0CE010E94BF20882369F08BE096E0E0
:10198000DF91CF911F910F91FF90EF90DF90CF905B
:10199000BF90AF9045C78BE096E0DF91CF911F914C
:1019A0000F91FF90EF90DF90CF90BF90AF903CC72A
:1019B00062E272E0CE010E94BF20882311F061E054
:1019C00001C060E08AE217C062E272E0CE010E94CC
:1019D000BF20882311F061E001C060E08CE20BC001
:1019E00062E272E0CE010E94BF20882311F061E024
:1019F00001C060E08EE2DF91CF911F910F91FF90C7
:101A0000EF90DF90CF90BF90AF900C94DF1ACE0193
:101A10000E946B21609392030BC0CE010E946B2148
:101A20006093930305C0CE010E946B2160939403E1
:101A300081E0F701808FDF91CF911F910F91FF908F
:101A4000EF90DF90CF90BF90AF9008954F925F924C
:101A50006F927F928F929F92AF92BF92CF92DF92BE
:101A6000EF92FF920F931F93CF93DF9300D000D09C
:101A7000CDB7DEB77C018B01412C40E050E06CE239
:101A8000C8010E94DD208F3F2FEF920729F0AC01A3
:101A90004F5F5F4F4394F3CF4694512CC12CD12C10
:101AA00047018CE0880E911C5701E2E1AE0EB11C9B
:101AB000541409F450C0A6016CE2C8010E94DD2054
:101AC00001963C01AC016CE2C8010E94DD206C0172
:101AD0009C01A301B801CE0101960E94FB20BE012A
:101AE0006F5F7F4FC4010E942E1FCE0101960E949E
:101AF0007C1E3601FFEF6F1A7F0AA3016CE2C8015A
:101B00000E94DD206C019C01A301B801CE01019669
:101B10000E94FB20BE016F5F7F4FC5010E942E1FF8
:101B2000CE0101960E947C1E6AE2C5010E94F82047
:101B3000019659F06AE2C5010E94F8206C0143E069
:101B400050E0BC01C5010E943E21A501B401C701BE
:101B5000D5DE5394ADCFF701808D882391F0108EA0
:101B600092E9E92E93E0F92E00E310E0F70161918C
:101B70007F01C8010E94F9270F5F1F4F063311052F
:101B8000A9F726960FB6F894DEBF0FBECDBFDF9142
:101B9000CF911F910F91FF90EF90DF90CF90BF906A
:101BA000AF909F908F907F906F905F904F9008952F
:101BB0006F5F7F4F80E0FB019191BF019A3211F07E
:101BC0008927F9CF0895FF920F931F93CF93DF9347
:101BD00000D000D0CDB7DEB78C0169E573E00E947C
:101BE000391F80913105813009F4A1C108F45BC02F
:101BF000823009F4FCC1833009F08CC265ED75E0D8
:101C0000C8010E942C206EE573E0C8010E943220BA
:101C10006091920370E04AE0CE0101960E947B1F22
:101C2000BE016F5F7F4FC8010E942C20CE0101963C
:101C30000E947C1E6EE573E0C8010E9432206BEDAD
:101C400075E0C8010E942C206EE573E0C8010E9477
:101C500032206091930370E04AE0CE0101960E9429
:101C60007B1FBE016F5F7F4FC8010E942C20CE01F9
:101C700001960E947C1E6EE573E0C8010E9432202E
:101C800061EE75E0C8010E942C206EE573E0C8018A
:101C90000E9432206091940370E04AE0CE010196E8
:101CA0000E947B1F2DC26DE575E0C8010E942C20AB
:101CB0006EE573E0C8010E9432206091A404709127
:101CC000A5048091A6049091A7040E94762220E8A2
:101CD00036E948E15BE40E94DB21AB01BC0127E06F
:101CE000CE0101960E94D41FBE016F5F7F4FC801D5
:101CF0000E942C20CE0101960E947C1E6EE573E0AE
:101D0000C8010E94322063E675E0C8010E942C20C1
:101D10006EE573E0C8010E9432206091A8047091C2
:101D2000A9048091AA049091AB040E94762220E835
:101D300036E948E15BE40E94DB21AB01BC0127E00E
:101D4000CE0101960E94D41FBE016F5F7F4FC80174
:101D50000E942C20CE0101960E947C1E6EE573E04D
:101D6000C8010E94322069E675E0C8010E942C205B
:101D70006EE573E0C8010E9432206091AC0470915E
:101D8000AD048091AE049091AF040E94762220E0D1
:101D900030E048EC52E40E94DB21AB01BC0122E0C0
:101DA000CE0101960E94D41FBE016F5F7F4FC80114
:101DB0000E942C20CE0101960E947C1E6EE573E0ED
:101DC000C8010E9432206FE675E0C8010E942C20F5
:101DD0006EE573E0C8010E9432206091B0047091FA
:101DE000B1048091B2049091B3040E94762220E065
:101DF00030E048EC52E40E94DB21AB01BC0122E060
:101E0000CE0101960E94D41FBE016F5F7F4FC801B3
:101E10000E942C20CE0101960E947C1E6EE573E08C
:101E2000C8010E94322065E775E0C8010E942C209D
:101E30006EE573E0C8010E9432206091B404709195
:101E4000B5048091B6049091B7040E94762220E0F8
:101E500030E048EC52E40E94DB21AB01BC0122E0FF
:101E6000CE0101960E94D41FBE016F5F7F4FC80153
:101E70000E942C20CE0101960E947C1E6EE573E02C
:101E8000C8010E9432206BE775E0C8010E942C2037
:101E90006EE573E0C8010E9432206091B804709131
:101EA000B9048091BA049091BB040E94762220E08C
:101EB00030E048EC52E40E94DB21AB01BC0122E09F
:101EC000CE0101960E94D41FBE016F5F7F4FC801F3
:101ED0000E942C20CE0101960E947C1E6EE573E0CC
:101EE000C8010E94322061E875E0C8010E942C20E0
:101EF0006EE573E0C8010E9432206091BC04C80105
:101F00000E9454206EE573E0C8010E94322067E809
:101F100075E0C8010E942C206EE573E0C8010E94A4
:101F200032206091BD04C8010E945420F3C06DE8C6
:101F300075E0C8010E942C206EE573E0C8010E9484
:101F400032204091FB045091FC046091FD0470919B
:101F5000FE0421E0CE0101960E94A61FBE016F5F24
:101F60007F4FC8010E942C20CE0101960E947C1E4A
:101F70006EE573E0C8010E94322063E975E0C80194
:101F80000E942C206EE573E0C8010E94322040912F
:101F9000FF0450910005609101057091020521E058
:101FA000CE0101960E94A61FBE016F5F7F4FC80140
:101FB0000E942C20CE0101960E947C1E6EE573E0EB
:101FC000C8010E94322069E975E0C8010E942C20F6
:101FD0006EE573E0C8010E943220409103055091E4
:101FE0000405609105057091060521E085C06BEA46
:101FF00075E0C8010E942C206EE573E0C8010E94C4
:10200000322040913504509136046091370470912C
:10201000380421E0CE0101960E94A61FBE016F5F29
:102020007F4FC8010E942C20CE0101960E947C1E89
:102030006EE573E0C8010E94322061EB75E0C801D3
:102040000E942C206EE573E0C8010E94322040916E
:10205000390450913A0460913B0470913C0421E0B2
:10206000CE0101960E94A61FBE016F5F7F4FC8017F
:102070000E942C20CE0101960E947C1E6EE573E02A
:10208000C8010E94322069EC75E0C8010E942C2032
:102090006EE573E0C8010E943220409129065091FC
:1020A0002A0660912B0670912C0623E0CE01019642
:1020B0000E94A61FBE016F5F7F4FC8010E942C20A7
:1020C000CE0101960E947C1E6EE573E0C8010E945D
:1020D00032206FEC75E0C8010E942C206EE573E0A1
:1020E000C8010E9432204091250650912606609139
:1020F00027067091280623E0CE0101960E94A61FB4
:10210000BE016F5F7F4FC8010E942C20CE01019657
:102110000E947C1E60E673E0C8010E943220F80134
:1021200060817181C80144DDF82EFFE0F81728F0C6
:1021300062E673E0C8010E94322040E16F2DCE01BB
:1021400001960E944F1FBE016F5F7F4FC8010E9422
:102150002C20CE0101960E947C1EB8018EE396E0F1
:102160000E945C1E809131058F5F843018F480934B
:10217000310502C01092310526960FB6F894DEBFE5
:102180000FBECDBFDF91CF911F910F91FF900895AA
:10219000CF936F5F7F4FC0E0FB012191BF012A32D7
:1021A00011F0C227F9CF40E150E060E070E0CF01CC
:1021B0000E94332681E0C61380E0CF91089565E147
:1021C00072E08DE595E00E94E41E6DE172E083E629
:1021D00095E00E94E41E65E272E089E695E00E94C7
:1021E000E41E6DE272E08FE695E00E94E41E6EE36D
:1021F00072E085E795E00E94E41E6BE472E08BE7F5
:1022000095E00E94E41E6DE572E081E895E00E9491
:10221000E41E6AE672E087E895E00E94E41E62E749
:1022200072E08DE895E00E94E41E6BE772E083E9BE
:1022300095E00E94E41E65E872E089E995E00E945D
:10224000E41E61E972E08FE995E00E94E41E6AE90C
:1022500072E085EA95E00E94E41E68EA72E08BEA8B
:1022600095E00E94E41E63EB72E081EB95E00E9432
:10227000E41E6DEB72E087EB95E00E94E41E6CECCF
:1022800072E08DEB95E00E94E41E6AED72E083EC53
:1022900095E00E94E41E66EE72E089EC95E00E94F3
:1022A000E41E6EEE72E08FEC95E00E94E41E66EF95
:1022B00072E085ED95E00E94E41E6EEF72E08BED1A
:1022C00095E00E94E41E68E073E081EE95E00E94D4
:1022D000E41E61E173E08BE495E00E94E41E62E29B
:1022E00072E081E595E00E94E41E65E173E087E518
:1022F00095E00E94E41E66E773E082E395E00E94A9
:10230000E41E66E773E088E395E00E94E41E66E75A
:1023100073E08EE395E00E94E41E66E773E084E4D8
:1023200095E00C94E41ECF93DF9384E495E00E9443
:102330007C1E8EE395E00E947C1E88E395E00E945F
:102340007C1E82E395E00E947C1E87E595E00E945A
:102350007C1E81E595E00E947C1E8BE495E00E9446
:102360007C1EC7EED5E02697CE010E947C1E85E03C
:10237000CD35D807C1F7DF91CF9108950F931F9303
:10238000CF93DF93EC018C010A5F1F4F8EE396E041
:102390000E943C1B892BE1F08EE396E00E94551BC6
:1023A0008A3039F08D3029F0682FC8010E94412011
:1023B000EDCF6E817F81CE01EBDE882319F0B8016D
:1023C000CE0144DB66E773E0C8010E94391FDECF0F
:1023D000DF91CF911F910F9108958F929F92AF92AD
:1023E000BF92EF92FF920F931F93CF93DF9300D092
:1023F00000D0CDB7DEB77B0106E09E012F5F3F4FD7
:1024000043E468E680EC94E00E945C07898190E0F8
:10241000982F88272A81822B959587959595879562
:10242000D70113969C938E9312978B8190E0982FEF
:1024300088272C81822B9195819591099595879577
:102440009595879511969C938E938D8190E0982F0A
:1024500088272E81822B9195819591099595879555
:102460009595879515969C938E93149720911202BB
:1024700030911302121613060CF04CC009EF15E050
:102480004FEF55E0B7012115B2E03B0729F4FA01FF
:102490001082118212821382DB018D919C91AA27F6
:1024A00097FDA095BA2FFA0180809180A280B38019
:1024B000880D991DAA1DBB1D81939193A193B19382
:1024C000AF01FB0111921192BF012130310521F0C2
:1024D000D8011D921C920DC09F5FAF4FBF4FE9E026
:1024E000B595A79597958795EA95D1F7F8019183CA
:1024F00080830E5F1F4FF5E00F3F1F0721F621502D
:102500003109309313022093120265E070E080E0FD
:1025100090E0FFD669EF75E0A3EFB5E0FB01819194
:102520009191BF01F70120813181281B390B4D9119
:102530005C911197CA01805293402817390734F0F3
:10254000805C994F281739070CF4C901F701819372
:1025500091937F018D939D93F5E06F3F7F07F1F697
:1025600026960FB6F894DEBF0FBECDBFDF91CF9198
:102570001F910F91FF90EF90BF90AF909F908F9021
:1025800008958F929F92AF92BF92CF92DF92EF9277
:10259000FF920F931F93CF93DF93CDB7DEB76E9764
:1025A0000FB6F894DEBF0FBECDBF6C01E12CE2E0A8
:1025B000FE2E11E006E09E01275E3F4F4BE368E6EA
:1025C00080EC94E00E945C07898D90E0982F88272A
:1025D0002A8D822B33E0959587953A95E1F79C8B70
:1025E0008B8B8B8D90E0982F88272C8D822B53E03E
:1025F000959587955A95E1F79E8B8D8B8D8D90E003
:10260000982F88272E8D822B73E0959587957A9544
:10261000E1F7988F8F8BFE013196AE014D5E5F4FD3
:1026200020E030E0E11482E0F80621F4108211820B
:1026300012821382DA018D909C90AA2497FCA094B8
:10264000BA2C80819181A281B381880D991DAA1D28
:10265000BB1D81939193A193B193DA011D921D92B9
:10266000AD01D601A20FB31F12961C921E921197B4
:102670002E5F3F4F26303105A9F6B1E0EB16F1048D
:1026800009F04CC0F601108389819A81AB81BC812D
:102690009F5FAF4FBF4F49E0B595A7959795879539
:1026A0004A95D1F7928381839E878D874D815E8184
:1026B0006F8178855F5F6F4F7F4FA9E07595679554
:1026C00057954795AA95D1F754834383588B4F87E5
:1026D00089859A85AB85BC859F5FAF4FBF4F09E069
:1026E000B595A795979587950A95D1F792509683BA
:1026F00085839A8B898BCE010D964C0180E1A82EA3
:10270000B12CD4016D914D01C5010E94F927BFEF95
:10271000AB1ABB0AE6E1AE16B10499F765E070E0CA
:1027200080E090E0F6D5F1E0EF1AF10809F042CF31
:102730006E960FB6F894DEBF0FBECDBFDF91CF917E
:102740001F910F91FF90EF90DF90CF90BF90AF90CF
:102750009F908F900895CF92DF92EF92FF920F9308
:10276000CF93DF9300D000D0CDB7DEB76C017B01F3
:1027700006E09E012F5F3F4F4BE368E680EC94E05C
:102780000E945C07698170E0762F66278A81682B3A
:10279000A3E075956795AA95E1F7F70171836083CA
:1027A0004B8150E0542F44278C81482B03E05595F2
:1027B00047950A95E1F7538342832D8130E0322F0C
:1027C00022278E81282B93E0359527959A95E1F75E
:1027D00035832483F60181819281681B790BF7018F
:1027E00071836083F60183819481481B590BF70143
:1027F00053834283F60185819681281B390BF701AB
:102800003583248326960FB6F894DEBF0FBECDBF66
:10281000DF91CF910F91FF90EF90DF90CF900895CF
:1028200022E0FC012783089524E0FC01278308951A
:102830002F923F924F925F926F927F928F929F92D0
:10284000AF92BF92CF92DF92EF92FF920F931F93BE
:10285000CF93DF93CDB7DEB72C970FB6F894DEBFDA
:102860000FBECDBF7C016B01DC0117968C9106E099
:102870009E01295F3F4F811103C043E06EE102C01A
:1028800049E468E680EC94E00E945C07A984B12CDE
:10289000BA2CAA248A85A82A222433242A183B0881
:1028A0000B8510E0102F00278C85082B6F8170E0BE
:1028B000762F66278885682B882777FD8095982F47
:1028C0000E947622F70120853185428553850E943A
:1028D00002230E9443222B013C01D6016D937C937D
:1028E000B801882777FD8095982F0E947622F701FE
:1028F00024853585468557850E9402230E94432200
:102900004B015C01D60113967C936E931297B10133
:10291000882777FD8095982F0E947622F7012089DD
:102920003189428953890E9402230E944322D601A1
:1029300015967C936E931497F70124893589421A72
:10294000530A11965C924E9226893789A401421B44
:10295000530B13965C934E931297208D318D621B0F
:10296000730B15967C936E93149787818230F9F4DC
:10297000D701A6016DEE75E087EE95E055961C92A5
:102980001E925497FA0121913191AF01FB012193DD
:102990003193BF01FC0121933193CF011296F5E0F1
:1029A000633F7F0759F783E0D70117968C93F701B0
:1029B0008781833001F5EDEEF5E047EE55E0D60175
:1029C0008D919D916D01208131818217930714F4BF
:1029D00091838083DA012D913C9111972817390753
:1029E00014F48D939C9332964E5F5F4FB5E0E33FB6
:1029F000FB0729F744C0843009F041C06DEE75E053
:102A000027EE35E0D701FB0181919191BF01F901DA
:102A1000419151919F01840F951F959587955596EA
:102A20009C938E9354971296F5E0633F7F0759F776
:102A300081E0D70117968C93179754968D919C91AE
:102A400055979A83898356968D919C9157979C832D
:102A50008B8358968D919C9159979E838D83FE010F
:102A600031967F0100E210E0D7016D917D01C80130
:102A70000E94F9270F5F1F4F06321105A9F72C9608
:102A80000FB6F894DEBF0FBECDBFDF91CF911F917F
:102A90000F91FF90EF90DF90CF90BF90AF909F90FD
:102AA0008F907F906F905F904F903F902F90089500
:102AB00020E84BE668E680EC94E00E94F40664E6C9
:102AC00070E080E090E025D423E04BE668E680ECFF
:102AD00094E00E94F40665E070E080E090E019D494
:102AE00023E04AE168E680EC94E00E94F40665E0A9
:102AF00070E080E090E00DD428E14BE168E680ECE6
:102B000094E00E94F40665E070E080E090E001D47B
:102B100022E047E368E680EC94E00C94F4062F9200
:102B20003F924F925F926F927F928F929F92AF925D
:102B3000BF92CF92DF92EF92FF920F931F93CF93AA
:102B4000DF93CDB7DEB760970FB6F894DEBF0FBE48
:102B5000CDBF8C0180E090E0A0E8BFE3F801808B5E
:102B6000918BA28BB38B84879587A687B787808745
:102B70009187A287B387118E108E178A168A158ABD
:102B8000148A178262E370E080E090E0C2D321E112
:102B900040E06EE180EC94E00E94F40620E441E025
:102BA0006EE180EC94E00E94F40621E042E06EE1E8
:102BB00080EC94E00E94F40664E670E080E090E02F
:102BC000A8D3BE01695F7F4FC80132DEBAE03B2E59
:102BD000412C512C3201812C912C5401C12CD12C2F
:102BE000760121E042E06EE180EC94E00E94F40680
:102BF00064E670E080E090E08CD3BE01695F7F4FB7
:102C0000C80116DEEF81F885CF01AA2797FDA095B0
:102C1000BA2F480E591E6A1E7B1E29853A85C901A6
:102C2000AA2797FDA095BA2F880E991EAA1EBB1E33
:102C30008B859C85AC01662757FD6095762FC40E69
:102C4000D51EE61EF71EAC01281739070CF4A901A2
:102C5000E417F50724F4E130F04FC4F011C0281751
:102C6000390734F481E02130304F44F080E006C071
:102C700021E08130904F0CF020E0822F811106C0BE
:102C80003A9409F0AECF2224239401C0212C22E1F2
:102C900040E06EE180EC94E00E94F406AAE03A2E57
:102CA00021E042E06EE180EC94E00E94F40664E6EC
:102CB00070E080E090E02DD3BE01695F7F4FC801D6
:102CC000B7DDEF81F885CF01AA2797FDA095BA2F30
:102CD000481A590A6A0A7B0A29853A85C901AA272E
:102CE00097FDA095BA2F881A990AAA0ABB0A8B8564
:102CF0009C85AC01662757FD6095762FC41AD50ACE
:102D0000E60AF70AAC01281739070CF4A901E41701
:102D1000F50724F4E130F04FB4F011C0281739075B
:102D200034F481E02130304F44F080E006C021E0EF
:102D30008130904F0CF020E0822F811104C03A9432
:102D400009F0AECF01C0212CC301B2010E9476224E
:102D50009B01AC0160E070EA84E996E40E94DB210B
:102D6000DC01CB01BF77F80180879187A287B38709
:102D7000C501B4010E9476229B01AC0160E070EABB
:102D800084E996E40E94DB21DC01CB01BF77F801E6
:102D900084879587A687B787C701B6010E947622E8
:102DA0009B01AC0160E070E68AE896E40E94DB21BA
:102DB000DC01CB01BF77F801808B918BA28BB38BA9
:102DC00020E740E06EE180EC94E00E94F40620E20F
:102DD00041E06EE180EC94E00E94F40620E042E0E5
:102DE0006EE180EC94E00E94F40664E670E080E01E
:102DF00090E08FD2211011C080E090E0A0E8BFE306
:102E0000F80180879187A287B38784879587A687F3
:102E1000B787808B918BA28BB38B81E0F80187837E
:102E2000AE014F5F5F4F6A01F0E2EF2EF12CC70158
:102E30000E94F127F60181936F01FFEFEF1AFF0A5D
:102E400036E2E316F10499F789819A81F801958BAE
:102E5000848B8B819C81978B868B8D819E81918FBA
:102E6000808F60960FB6F894DEBF0FBECDBFDF91A6
:102E7000CF911F910F91FF90EF90DF90CF90BF9077
:102E8000AF909F908F907F906F905F904F903F900A
:102E90002F900895CF92DF92EF92FF920F931F939E
:102EA000CF93DF9300D000D0CDB7DEB77C0120E117
:102EB0004CE168E680EC94E00E94F40620E24AE6E9
:102EC00068E680EC94E00E94F40620E047E368E6C0
:102ED00080EC94E00E94F4062DE044E268E680EC89
:102EE00094E00E94F4062EE945E268E680EC94E066
:102EF0000E94F40623E046E268E680EC94E00E943B
:102F0000F40626E847E268E680EC94E00E94F406C6
:102F1000CE0101966C0100E110E0C8010E94F1278A
:102F2000F60181936F010F5F1F4F06311105A9F75D
:102F300089819A81F701928381838B819C8194831B
:102F400083838D819E819683858326960FB6F89420
:102F5000DEBF0FBECDBFDF91CF911F910F91FF90CC
:102F6000EF90DF90CF900895CF93DF93EC0118821C
:102F700080EC94E00E94B706CE019ADDCE01CFDD51
:102F8000CE01DF91CF9186CFCF93DF93EC01842FD9
:102F90006883498361E0DAD261E08881DF91CF9173
:102FA000D5C2CF93DF93EC0160E0888108D384E140
:102FB00090E0E6D161E0888102D384E190E0DF9186
:102FC000CF91DEC11F93CF93DF93EC0110E260E05D
:102FD0008981F5D2CE01E5DF1150C9F7DF91CF919C
:102FE0001F910895EFCFEECF862F8095881F8827F9
:102FF000881F880F66FF81600895CF92DF92EF925D
:10300000FF921F93CF93DF93EC016A017B0110E2E3
:10301000F7FE02C061E001C060E08981D0D2CC0C33
:10302000DD1CEE1CFF1CCE01BCDF115089F7DF91C7
:10303000CF911F91FF90EF90DF90CF900895AF92C6
:10304000BF92CF92DF92EF92FF920F931F93CF9395
:10305000DF931F92CDB7DEB75C01162FF42E622FDF
:103060002983C2DFC82E6F2DC501BEDF082F612F57
:10307000C501BADF412F50E060E070E0706C5F295D
:103080002981622BD12CE12CF12C9CE1CC0CDD1C94
:10309000EE1CFF1C9A95D1F74C295D296E297F29DA
:1030A00010E020E030E0EAE1000F111F221F331F83
:1030B000EA95D1F7402B512B622B732B782BC5014E
:1030C0000F90DF91CF911F910F91FF90EF90DF90C4
:1030D000CF90BF90AF9091CFCF93DF93EC0160E0A2
:1030E00084E434D260E085E431D285E4B6D1BC0119
:1030F000882777FD8095982F0E94762268877987A8
:103100008A879B8784E4A9D1BC01882777FD8095B5
:10311000982F0E9476226C877D878E879F87DF910C
:10312000CF910895CF92DF92EF92FF92CF93DF93EA
:10313000EC0124EA30E74DE75FE36C857D858E8501
:103140009F850E9402236B017C0184E486D1BC012F
:10315000882777FD8095982F0E94762220E037ED12
:1031600043E25CE30E9402239B01AC01C701B6016C
:103170000E9477216C877D878E879F872EE230E9BA
:1031800040EA5BE30E94022320E030E040E250E4AA
:103190000E9476212DEC3CEC4CEC5DE30E94DB219F
:1031A000688379838A839B8324EA30E74DE75FE372
:1031B000688579858A859B850E9402236B017C0145
:1031C00085E44BD1BC01882777FD8095982F0E941C
:1031D000762220E037ED43E25CE30E9402239B016C
:1031E000AC01C701B6010E947721688779878A8779
:1031F0009B872EE230E940EA5BE30E9402232DEC3C
:1032000036E84CE45EE30E94DB216C837D838E8391
:103210009F83DF91CF91FF90EF90DF90CF90089543
:103220001F920F920FB60F9211242F933F938F93FB
:103230009F93AF93BF938091360690913706A091EC
:103240003806B09139063091350623E0230F2D372B
:1032500020F40196A11DB11D05C026E8230F02969A
:10326000A11DB11D20933506809336069093370635
:10327000A0933806B093390680913A0690913B06A8
:10328000A0913C06B0913D060196A11DB11D809311
:103290003A0690933B06A0933C06B0933D06BF913F
:1032A000AF919F918F913F912F910F900FBE0F90F3
:1032B0001F9018952FB7F8946091360670913706D5
:1032C00080913806909139062FBF08953FB7F89442
:1032D00080913A0690913B06A0913C06B0913D0644
:1032E00026B5A89B05C02F3F19F00196A11DB11D61
:1032F0003FBF6627782F892F9A2F620F711D811D7E
:10330000911D42E0660F771F881F991F4A95D1F7DC
:1033100008958F929F92AF92BF92CF92DF92EF92D9
:10332000FF926B017C01D2DF4B015C01C114D1041F
:10333000E104F104E1F0D9D7C9DF681979098A09F4
:103340009B09683E73408105910580F321E0C21A14
:10335000D108E108F10888EE880E83E0981EA11CD0
:10336000B11CC114D104E104F10431F7DFCFFF90A7
:10337000EF90DF90CF90BF90AF909F908F90089587
:103380008230910538F0880F991F880F991F059793
:103390000197F1F70895789484B5826084BD84B56F
:1033A000816084BD85B5826085BD85B5816085BD40
:1033B000EEE6F0E0808181608083E1E8F0E0108259
:1033C000808182608083808181608083E0E8F0E09A
:1033D000808181608083E1EBF0E080818460808384
:1033E000E0EBF0E0808181608083E1E9F0E08081C2
:1033F00082608083808181608083E0E9F0E0808169
:1034000081608083E1EAF0E0808182608083808156
:1034100081608083E0EAF0E0808181608083E1E286
:10342000F1E0808182608083808181608083E0E23E
:10343000F1E0808181608083EAE7F0E08081846050
:1034400080838081826080838081816080838081AD
:10345000806880831092C1000895863308F08653F7
:1034600020917B00982F9870277F922B90937B0060
:1034700087702091140290E4299F90011124822BDF
:1034800080937C0080917A00806480937A008091A0
:103490007A0086FDFCCF809178002091790090E041
:1034A000922B089590E0FC013197E231F10508F08C
:1034B0004CC0E957FF4F0C94C523809180008F7753
:1034C00003C0809180008F7D80938000089580915B
:1034D0008000877FF9CF84B58F7702C084B58F7D58
:1034E00084BD08958091B0008F7703C08091B000B3
:1034F0008F7D8093B0000895809190008F7707C0F2
:10350000809190008F7D03C080919000877F809391
:10351000900008958091A0008F7707C08091A0004F
:103520008F7D03C08091A000877F8093A0000895C5
:10353000809120018F7707C0809120018F7D03C08B
:1035400080912001877F809320010895CF93DF939E
:1035500090E0FC01E858FE4F2491FC01E254FE4F3C
:103560008491882349F190E0880F991FFC01E85C61
:10357000FD4FA591B491825E9D4FFC01C591D49100
:103580009FB7611108C0F8948C91209582238C9389
:10359000888182230AC0623051F4F8948C91322FD2
:1035A000309583238C938881822B888304C0F89480
:1035B0008C91822B8C939FBFDF91CF9108950F93B5
:1035C0001F93CF93DF931F92CDB7DEB7282F30E044
:1035D000F901EE5CFE4F8491F901E858FE4F149119
:1035E000F901E254FE4F04910023C1F0882319F041
:1035F000698358DF6981E02FF0E0EE0FFF1FE25E84
:10360000FD4FA591B4919FB7F8948C91611103C0BF
:103610001095812301C0812B8C939FBF0F90DF9168
:10362000CF911F910F910895CF93DF93282F30E012
:10363000F901EE5CFE4F8491F901E858FE4FD491F8
:10364000F901E254FE4FC491CC2389F081112ADFA5
:10365000EC2FF0E0EE0FFF1FEC5FFD4FA591B49152
:103660002C912D2381E090E021F480E002C080E0E5
:1036700090E0DF91CF910895FC01818D228D90E043
:10368000805C9F4F821B91098F7399270895FC01DD
:10369000918D828D981731F0828DE80FF11D858D07
:1036A00090E008958FEF9FEF0895FC01918D828D3A
:1036B000981761F0828DDF01A80FB11D5D968C9186
:1036C000928D9F5F9F73928F90E008958FEF9FEF91
:1036D000089589E09DE1892B39F080E090E0892B05
:1036E00019F097D1811124C084EB9DE1892B39F029
:1036F00080E090E0892B19F037D281111CC080E066
:1037000090E0892B41F080E090E0892B21F00E942D
:103710000000811113C080E090E0892BA1F080E0CF
:1037200090E0892B81F00E94000081110AC0089569
:103730000E940000D9CF0E940000E1CF0E9400004B
:10374000EACF0C9400000895FC01848DDF01A80FDE
:10375000B11DA35ABF4F2C91848D90E001968F73B9
:103760009927848FA689B7892C93A089B1898C91D8
:1037700080648C93938D848D981306C00288F3899E
:10378000E02D80818F7D80830895CF93DF93EC01BE
:10379000888D8823C1F0EA89FB89808185FD05C079
:1037A000A889B9898C9186FD0EC00FB607FCF5CFAC
:1037B000808185FFF2CFA889B9898C9185FFEDCFF3
:1037C000CE01C2DFE8CFDF91CF910895CF92DF9293
:1037D000FF920F931F93CF93DF931F92CDB7DEB766
:1037E0006C0181E0D60158968C9358975B969C911A
:1037F0005B975C968C915C97981307C05096ED91FF
:10380000FC915197808185FD2DC0F601038D10E05C
:103810000F5F1F4F0F731127F02EF601848DF812E2
:1038200010C00FB607FCF9CFD6015096ED91FC9170
:103830005197808185FFF1CFC601698385DF69815A
:10384000ECCF838DE80FF11DE35AFF4F6083D60163
:103850005B960C935B975296ED91FC915397808108
:1038600080620CC0D6015696ED91FC91579760830B
:103870005096ED91FC91519780818064808381E026
:1038800090E00F90DF91CF911F910F91FF90DF900B
:10389000CF900895BF92CF92DF92EF92FF92CF9395
:1038A000DF93EC016A017B01B22EE889F98982E09D
:1038B0008083411581EE58076105710599F060E03C
:1038C00079E08DE390E0A701960121D721503109DD
:1038D000410951095695479537952795211580E15E
:1038E000380790F0E889F989108260E874E88EE181
:1038F00090E0A70196010BD72150310941095109E8
:103900005695479537952795EC85FD853083EE854F
:10391000FF852083188EEC89FD89B082EA89FB89B6
:10392000808180618083EA89FB89808188608083CF
:10393000EA89FB89808180688083EA89FB898081AC
:103940008F7D8083DF91CF91FF90EF90DF90CF90BC
:10395000BF9008951F920F920FB60F9211240BB6CD
:103960000F922F938F939F93EF93FF93E0914E06C7
:10397000F0914F068081E0915406F091550682FD4A
:1039800012C09081809157068F5F8F7320915806E7
:10399000821751F0E0915706F0E0E25CF94F958F05
:1039A0008093570601C08081FF91EF919F918F9185
:1039B0002F910F900BBE0F900FBE0F901F90189578
:1039C0001F920F920FB60F9211240BB60F922F93E6
:1039D0003F934F935F936F937F938F939F93AF9397
:1039E000BF93EF93FF938EE396E0AEDEFF91EF91EE
:1039F000BF91AF919F918F917F916F915F914F9107
:103A00003F912F910F900BBE0F900FBE0F901F9004
:103A100018958EE396E030DE21E0892B09F420E052
:103A2000822F0895109241061092400688EE93E08E
:103A3000A0E0B0E08093420690934306A093440632
:103A4000B093450688E693E090933F0680933E0648
:103A500085EC90E090934B0680934A0684EC90E0CE
:103A600090934D0680934C0680EC90E090934F0627
:103A700080934E0681EC90E090935106809350061F
:103A800082EC90E0909353068093520686EC90E08F
:103A9000909355068093540610925706109258063C
:103AA0001092590610925A0608951F920F920FB65F
:103AB0000F9211240BB60F922F938F939F93EF9336
:103AC000FF93E091EB06F091EC068081E091F10626
:103AD000F091F20682FD12C090818091F4068F5F12
:103AE0008F732091F506821751F0E091F406F0E013
:103AF000E552F94F958F8093F40601C08081FF91C4
:103B0000EF919F918F912F910F900BBE0F900FBE51
:103B10000F901F9018951F920F920FB60F921124BD
:103B20000BB60F922F933F934F935F936F937F93B7
:103B30008F939F93AF93BF93EF93FF938BED96E09B
:103B400003DEFF91EF91BF91AF919F918F917F9194
:103B50006F915F914F913F912F910F900BBE0F90FE
:103B60000FBE0F901F9018958BED96E085DD21E03C
:103B7000892B09F420E0822F08951092DE0610921E
:103B8000DD0688EE93E0A0E0B0E08093DF0690933E
:103B9000E006A093E106B093E20688E693E09093F6
:103BA000DC068093DB068DEC90E09093E806809332
:103BB000E7068CEC90E09093EA068093E90688ECA7
:103BC00090E09093EC068093EB0689EC90E0909364
:103BD000EE068093ED068AEC90E09093F0068093D9
:103BE000EF068EEC90E09093F2068093F10610922F
:103BF000F4061092F5061092F6061092F706089554
:103C00000895C9DBFDDF0E94DE01C9E6DBE10E9409
:103C100041022097E1F35DDDFACFCF92DF92EF9280
:103C2000FF920F931F93CF93DF937C016A01EB0107
:103C300000E010E00C151D0571F06991D701ED91C0
:103C4000FC910190F081E02DC7011995892B19F0A5
:103C50000F5F1F4FEFCFC801DF91CF911F910F91E1
:103C6000FF90EF90DF90CF9008956115710581F07E
:103C7000DB010D900020E9F7AD0141505109461BD1
:103C8000570BDC01ED91FC910280F381E02D19943A
:103C900080E090E00895DC01ED91FC91DB01149649
:103CA0004D915C9115976D917C910280F381E02D8F
:103CB000199464E773E0D9CF0F931F93CF93DF93E9
:103CC000EC01E9DF8C01CE01F4DF800F911FDF9161
:103CD000CF911F910F9108950F931F93CF93DF936F
:103CE000EC01C3DF8C01CE01E4DF800F911FDF9177
:103CF000CF911F910F910895FC018081918140C661
:103D0000CF93DF93EC0188819981009709F038D631
:103D1000198218821D821C821B821A82DF91CF9128
:103D200008950F931F93CF93DF93EC018B016F5F87
:103D30007F4F88819981B3D6009731F0998388832A
:103D40001B830A8381E001C080E0DF91CF911F9146
:103D50000F910895CF93DF93EC0188819981892B8E
:103D600029F08A819B818617970758F4CE01D9DF05
:103D7000882341F08C819D81892B19F4E881F98198
:103D8000108281E0DF91CF910895EF92FF920F931F
:103D90001F93CF93DF93EC017B018A01BA01DADF35
:103DA000811103C0CE01ACDF07C01D830C83B701B6
:103DB000888199810E948F27CE01DF91CF911F9139
:103DC0000F91FF90EF900895FC01118210821382F1
:103DD0001282158214826115710551F0FB01019068
:103DE0000020E9F7AF0141505109461B570BCDCFD9
:103DF00008950F931F93CF93DF938C01EB01FC0188
:103E000080819181009791F0428153812C813D8185
:103E10004217530750F0688179810E948F278C8167
:103E20009D81F8019583848312C0AAD588819981E8
:103E3000F801918380838A819B81938382838C8123
:103E40009D8195838483198218821B821A821D8228
:103E50001C82DF91CF911F910F910895CF93DF9333
:103E6000EC018617970709F0C4DFCE01DF91CF91EF
:103E70000895CF93DF93EC016115710559F0FB01B3
:103E800001900020E9F7AF0141505109461B570B43
:103E90007CDF01C035DFCE01DF91CF9108950F9314
:103EA0001F93CF93DF93CDB7DEB729970FB6F89462
:103EB000DEBF0FBECDBF8C01862FF80111821082AC
:103EC000138212821582148250E0BE016F5F7F4F11
:103ED00090E00E94CE27BE016F5F7F4FC801C9DF0F
:103EE00029960FB6F894DEBF0FBECDBFDF91CF91FC
:103EF0001F910F9108950F931F93CF93DF93CDB729
:103F0000DEB762970FB6F894DEBF0FBECDBF8C014F
:103F1000CB01F80111821082138212821582148261
:103F200050E0BE016F5F7F4F0E94A527BE016F5F0B
:103F30007F4FC8019EDF62960FB6F894DEBF0FBEBA
:103F4000CDBFDF91CF911F910F910895EF92FF9216
:103F50000F931F93CF93DF93CDB7DEB7A1970FB623
:103F6000F894DEBF0FBECDBF7C01CB01BA01F701D3
:103F700011821082138212821582148242E0420F53
:103F80008E010F5F1F4F44D4BC01C70172DFA196A1
:103F90000FB6F894DEBF0FBECDBFDF91CF911F915A
:103FA0000F91FF90EF900895EF92FF920F931F9360
:103FB000CF93DF93CDB7DEB7A1970FB6F894DEBFEE
:103FC0000FBECDBF7C01CB01BA01F7011182108277
:103FD000138212821582148242E0420F8E010F5F1B
:103FE0001F4F16D4BC01C70144DFA1960FB6F89449
:103FF000DEBF0FBECDBFDF91CF911F910F91FF901C
:10400000EF900895EF92FF920F931F93CF93DF935A
:10401000EC017B010C811D816115710511F480E0BB
:1040200014C04115510581F0040F151FB80192DE2F
:104030008823A9F3288139818C819D81B701820F62
:10404000931F6DD71D830C8381E0DF91CF911F916A
:104050000F91FF90EF900895FB014481558160819D
:104060007181D0CF6115710551F0FB0101900020E5
:10407000E9F7AF0141505109461B570BC3CF80E010
:104080000895CF93DF931F921F92CDB7DEB7698358
:104090001A8241E050E0BE016F5F7F4FB3DF0F90A7
:1040A0000F90DF91CF910895EF92FF920F931F939E
:1040B000CF93DF9300D01F92CDB7DEB77C01862F60
:1040C0004AE08E010F5F1F4FB80190E048D7F8011A
:1040D00001900020E9F7AF0141505109401B510BFD
:1040E000B801C7018FDF0F900F900F900F90DF91F5
:1040F000CF911F910F91FF90EF900895CF93DF9391
:10410000DC01ED91FC91EB01A881B981309711F0B0
:104110001097C9F4109759F0EB012C813D81232BA6
:1041200031F08C9190E091958195910913C0309771
:1041300079F0DC0114968D919C911597892B41F0B3
:10414000808190E007C0BD01CF01DF91CF91DEC635
:1041500080E090E0DF91CF910895FC01448155818A
:10416000FB01248135814217530739F4C7DF21E071
:10417000892B09F020E0822F089580E00895FC014A
:1041800024813581232B31F421E06115710599F0EB
:10419000FB0108C0FC01808191816115710531F43A
:1041A00021E0FC018081882331F004C0AFD621E0FA
:1041B000892B09F020E0822F0895CF93DF93FC0133
:1041C000848195814817590770F4C081D181772780
:1041D00067FD7095CE01840F951F8DD6009719F05D
:1041E0008C1B9D0B02C08FEF9FEFDF91CF91089545
:1041F00040E050E0E2CFBF92CF92DF92EF92FF9289
:104200000F931F93CF93DF936C017B01EA01890128
:104210002417350720F48D2FE901042F182F66E7A6
:1042200073E0C601D1DDD70114968D919C9115974D
:10423000C817D907C0F48017910708F48C01D7017B
:10424000ED91FC911197E00FF11FB08010826D91FC
:104250007C916C0F7D1FC6010CDED701ED91FC91A6
:10426000E00FF11FB082C601DF91CF911F910F9136
:10427000FF90EF90DF90CF90BF900895CF93DF93A2
:10428000EC01CB012C813D816217730708F54115C4
:104290005105F1F0B901681B790B4617570708F46F
:1042A000BA01E881F981261B370B3D832C83A901D4
:1042B000481B590B680F791F6E0F7F1F8E0F9F1FB2
:1042C00035D6E881F9818C819D81E80FF91F108234
:1042D000DF91CF910895FC0180819181009709F0D1
:1042E000D3C560E070E0CB01089508955058BB2716
:1042F000AA270ED04DC13ED130F043D120F031F489
:104300009F3F11F41EF433C10EF4E095E7FB29C181
:10431000E92F4FD180F3BA17620773078407950717
:1043200018F071F49EF567C10EF4E0950B2EBA2FCC
:10433000A02D0B01B90190010C01CA01A0011124AB
:10434000FF27591B99F0593F50F4503E68F11A1657
:10435000F040A22F232F342F4427585FF3CF4695E8
:1043600037952795A795F0405395C9F77EF41F160A
:10437000BA0B620B730B840BBAF09150A1F0FF0FD4
:10438000BB1F661F771F881FC2F70EC0BA0F621FC0
:10439000731F841F48F4879577956795B795F795B0
:1043A0009E3F08F0B3CF9395880F08F09927EE0F42
:1043B0009795879508950CD0EBC0E3D040F0DAD004
:1043C00030F021F45F3F19F0CCC0511115C1CFC0BE
:1043D000F0D098F39923C9F35523B1F3951B550BEE
:1043E000BB27AA2762177307840738F09F5F5F4FC8
:1043F000220F331F441FAA1FA9F333D00E2E3AF009
:10440000E0E830D091505040E695001CCAF729D022
:10441000FE2F27D0660F771F881FBB1F2617370771
:104420004807AB07B0E809F0BB0B802DBF01FF27A1
:1044300093585F4F2AF09E3F510568F092C0DCC050
:104440005F3FECF3983EDCF3869577956795B795DB
:10445000F7959F5FC9F7880F911D9695879597F9F6
:104460000895E1E0660F771F881FBB1F621773076F
:104470008407BA0720F0621B730B840BBA0BEE1F84
:1044800088F7E095089504D06894B111B5C00895F7
:1044900098D088F09F5790F0B92F9927B751A0F086
:1044A000D1F0660F771F881F991F1AF0BA95C9F7C8
:1044B00012C0B13081F09FD0B1E008959CC0672F49
:1044C000782F8827B85F39F0B93FCCF38695779578
:1044D0006795B395D9F73EF4909580957095619561
:1044E0007F4F8F4F9F4F0895E89409C097FB3EF48C
:1044F00090958095709561957F4F8F4F9F4F992331
:10450000A9F0F92F96E9BB279395F69587957795AE
:104510006795B795F111F8CFFAF4BB0F11F460FF6E
:104520001BC06F5F7F4F8F4F9F4F16C0882311F0C6
:1045300096E911C0772321F09EE8872F762F05C0DA
:10454000662371F096E8862F70E060E02AF09A9575
:10455000660F771F881FDAF7880F9695879597F96A
:10456000089597F99F6780E870E060E008959FEFF5
:1045700080EC089500240A941616170618060906FA
:10458000089500240A9412161306140605060895C9
:10459000092E0394000C11F4882352F0BB0F40F451
:1045A000BF2B11F460FF04C06F5F7F4F8F4F9F4F91
:1045B000089557FD9058440F551F59F05F3F71F013
:1045C0004795880F97FB991F61F09F3F79F087957A
:1045D0000895121613061406551FF2CF4695F1DF03
:1045E00008C0161617061806991FF1CF8695710593
:1045F000610508940895E894BB2766277727CB01C7
:1046000097F908950BD0C4CFB5DF28F0BADF18F0C2
:10461000952309F0A6CFABCF1124EECFCADFA0F3CC
:10462000959FD1F3950F50E0551F629FF001729F47
:10463000BB27F00DB11D639FAA27F00DB11DAA1F66
:10464000649F6627B00DA11D661F829F2227B00DB3
:10465000A11D621F739FB00DA11D621F839FA00D3E
:10466000611D221F749F3327A00D611D231F849F8E
:10467000600D211D822F762F6A2F11249F575040E5
:104680008AF0E1F088234AF0EE0FFF1FBB1F661F80
:10469000771F881F91505040A9F79E3F510570F039
:1046A00060CFAACF5F3FECF3983EDCF38695779519
:1046B0006795B795F795E7959F5FC1F7FE2B880F34
:1046C000911D9695879597F90895DB018F939F9398
:1046D0007DD0BF91AF91A29F800D911DA39F900DA2
:1046E000B29F900D1124089597FB072E16F40094A5
:1046F00006D077FD08D078D007FC05D03EF4909521
:1047000081959F4F0895709561957F4F0895A1E21F
:104710001A2EAA1BBB1BFD010DC0AA1FBB1FEE1F3B
:10472000FF1FA217B307E407F50720F0A21BB30B86
:10473000E40BF50B661F771F881F991F1A9469F702
:1047400060957095809590959B01AC01BD01CF015E
:104750000895052E97FB16F400940FD057FD05D051
:10476000D6DF07FC02D046F408C05095409530953E
:1047700021953F4F4F4F5F4F0895909580957095CD
:1047800061957F4F8F4F9F4F0895EE0FFF1F05904C
:10479000F491E02D199405D0332312F48A1B9B0B5E
:1047A00010C0A29FB001B39FC001A39F700D811DD7
:1047B0001124911DB29F700D811D1124911D08952A
:1047C000F0DFB7FF0895821B930B0895EADFA59FE2
:1047D000900DB49F900DA49F800D911D11240895FC
:1047E0000790F691E02D1994AA1BBB1B51E107C05D
:1047F000AA1FBB1FA617B70710F0A61BB70B881F71
:10480000991F5A95A9F780959095BC01CD010895FF
:10481000EF920F931F93CF93DF93E80147FF02C0FE
:1048200034E101C034E0E42FFF27E7FDF095F7FF06
:1048300003C0F195E195F109E32E022F2E2FAE0171
:10484000E6D3CE01DF91CF911F910F91EF900895A4
:10485000CF93DF938230910510F482E090E0E091F5
:104860007A07F0917B0720E030E0A0E0B0E03097DD
:1048700039F14081518148175907B8F04817590755
:1048800071F482819381109729F013969C938E93F3
:1048900012972CC090937B0780937A0727C021152D
:1048A000310531F04217530718F0A901DB0101C0AF
:1048B000EF019A01BD01DF010280F381E02DD7CF26
:1048C00021153105F9F0281B390B2430310580F40E
:1048D0008A819B816115710521F0FB01938382839D
:1048E00004C090937B0780937A07FE01329644C000
:1048F000FE01E20FF31F8193919322503109398316
:1049000028833AC02091780730917907232B41F40E
:1049100020910202309103023093790720937807A7
:1049200020910002309101022115310541F42DB78B
:104930003EB74091040250910502241B350BE091D3
:104940007807F0917907E217F307A0F42E1B3F0BCD
:104950002817390778F0AC014E5F5F4F24173507F1
:1049600048F04E0F5F1F509379074093780781936B
:10497000919302C0E0E0F0E0CF01DF91CF91089584
:10498000CF93DF93009709F487C0FC01329713821D
:104990001282C0917A07D0917B07209781F4208101
:1049A0003181280F391F80917807909179078217FC
:1049B000930779F5F0937907E09378076DC0DE01EE
:1049C00020E030E0AE17BF0750F412964D915C9195
:1049D00013979D014115510509F1DA01F3CFB38316
:1049E000A28340815181840F951F8A179B0771F420
:1049F0008D919C911197840F951F029691838083CE
:104A000012968D919C911397938382832115310582
:104A100029F4F0937B07E0937A073EC0D9011396FF
:104A2000FC93EE9312974D915D91A40FB51FEA1779
:104A3000FB0779F480819181840F951F0296D9013B
:104A400011969C938E938281938113969C938E935F
:104A50001297E0E0F0E08A819B81009719F0FE0157
:104A6000EC01F9CFCE01029628813981820F931F84
:104A700020917807309179072817390769F4309722
:104A800029F410927B0710927A0702C013821282D7
:104A9000D0937907C0937807DF91CF9108956F92F3
:104AA0007F928F929F92AF92BF92CF92DF92EF92BE
:104AB000FF920F931F93CF93DF93EC01CB012097CD
:104AC00079F4DF91CF911F910F91FF90EF90DF90DC
:104AD000CF90BF90AF909F908F907F906F90B8CE07
:104AE000FE01E60FF71F9E0122503109E217F3077E
:104AF00008F4A8C0D9010D911C911197061717074A
:104B0000B0F00530110508F49BC0A80144505109CC
:104B10004617570708F494C002501109061B170BDB
:104B2000019311936D937C93CF012ADF89C05B01C0
:104B3000A01AB10A4E01800E911EA0917A07B09181
:104B40007B07612C712C60E070E0109709F449C07C
:104B5000A815B905C9F5ED90FC901197670142E0E1
:104B6000C40ED11CCA14DB0478F147018A189B08D3
:104B7000640142E0C40ED11C1296BC9012971396A9
:104B8000AC91B5E0CB16D10440F0B282A383918200
:104B90008082D9018D939C9309C00E5F1F4F0E0D2B
:104BA0001F1DF90111830083EB2DFA2F611571058B
:104BB00031F0DB011396FC93EE93129741C0F09312
:104BC0007B07E0937A073CC06D917C911197661644
:104BD000770608F43B01BD0112960D90BC91A02D03
:104BE000B4CF609178077091790768157905E9F479
:104BF00068167906D0F440910002509101024115E7
:104C0000510541F44DB75EB7609104027091050201
:104C1000461B570BE417F507A8F4F0937907E093C8
:104C20007807F901918380830BC012DE7C01009725
:104C300049F0A801BE0156D1CE01A2DEC70104C0D1
:104C4000CE0102C080E090E0DF91CF911F910F91E3
:104C5000FF90EF90DF90CF90BF90AF909F908F909C
:104C60007F906F9008952F923F925F926F927F9204
:104C70008F929F92AF92BF92CF92DF92EF92FF926C
:104C80000F931F93CF93DF938B01EA016115710599
:104C900021F0DB018C9311969C93209739F09E01B3
:104CA000225031092332310508F0D5C07C0167015B
:104CB000BFEFCB1ADB0A5601F7016080862D90E02A
:104CC00009D1892B11F07601F2CFFDE26F120AC0F3
:104CD000570182E0A80EB11CD70111966C90772481
:104CE00073940BC0BBE26B1207C05701E2E0AE0E3B
:104CF000B11CD70111966C90712CCE018F7E892B3F
:104D000089F4B0E36B1236C0F50180818F7D883560
:104D1000D1F46180F2E0AF0EB11C872D8260782E55
:104D2000C0E1D0E0CA30D10549F1C031D10521F050
:104D3000C830D10599F409C0CC24CA94DC2CEC2CE1
:104D4000AFE0FA2E21C0209769F7C8E0D0E0CC246C
:104D5000CA94DC2CEC2CFFE1FF2E16C06FEF7FEF26
:104D6000CB019E01442737FD4095542FD0DC6901CB
:104D70007A010AC02097B1F6CAE0D0E0E9E9CE2E68
:104D8000DC2CEC2CE9E1FE2EF50160E020E030E0C7
:104D9000A9014E01AA2497FCA094BA2C1F0170ED22
:104DA000572E560CA9E0A51570F48FEB860D8A31AD
:104DB00018F499EC592E06C08FE9860D8A3140F51A
:104DC00089EA582E560C852D90E08C179D0704F526
:104DD0006F3FD1F0C216D306E406F50690F0C50188
:104DE000B40173DC9B01AC01852D90E0A0E0B0E044
:104DF000280F391F4A1F5B1F281739074A075B070F
:104E000010F46FEF01C061E03196D1016C90C6CF14
:104E10000115110551F0662311F0319703C071FEA1
:104E200004C03297D801ED93FC9370FE07C05095F3
:104E30004095309521953F4F4F4F5F4F67FF10C012
:104E400082E290E090937D0780937C076FEF7FEF85
:104E50008FEF9FEF07C060E070E080E090E002C05D
:104E6000B901CA01DF91CF911F910F91FF90EF908F
:104E7000DF90CF90BF90AF909F908F907F906F907A
:104E80005F903F902F9008951F93FC0199278827EA
:104E9000BC01E89411911032E9F3193010F01E3082
:104EA000C8F31B3249F01D3241F4689405C061D04B
:104EB000610F711D811D911D119110531A30B8F3AE
:104EC0003EF490958095709561957F4F8F4F9F4FE1
:104ED0001F9108959111F0C2803219F089508550C8
:104EE000D0F70895FB01DC0102C001900D92415002
:104EF0005040D8F70895FC018191861721F088234E
:104F0000D9F7992708953197CF010895FB01DC0166
:104F10008D91019080190110D9F3990B0895FB012F
:104F2000DC0101900D920020E1F70895FB01DC0106
:104F30004150504048F001900D920020C9F701C047
:104F40001D9241505040E0F708954532510518F444
:104F5000423008F004C0FB011082CB010895BB274A
:104F60004A3031F4992322F4BDE2909581959F4F08
:104F700020C0592F482F372F262F660F771F881FE5
:104F8000991F660F771F881F991F620F731F841F59
:104F9000951F660F771F881F991F08954532510589
:104FA00018F4423008F004C0FB011082CB010895D0
:104FB000BB27FB015527AA27880F991FAA1FA417F3
:104FC00010F0A41B83955051B9F7A05DAA3308F0E7
:104FD000A95DA193009779F7B111B1931192CB011B
:104FE0006EC2F999FECF92BD81BDF89A992780B51E
:104FF0000895262FF999FECF1FBA92BD81BD20BD1D
:105000000FB6F894FA9AF99A0FBE019608956F9226
:105010007F929F92AF92BF92CF92DF92EF92FF92D8
:105020000F931F93CF93DF93CDB7DEB729970FB6BA
:10503000F894DEBF0FBECDBF6A01B22E102F0C3325
:1050400020F4FF24F394F00E02C04CE3F42E0F2D55
:1050500027E0AE014F5F5F4F57D17981272F29702D
:10506000213031F0E1FC06C0E0FC06C060E005C084
:105070006DE203C06BE201C060E2AE2DA07173FF70
:1050800036C0662311F084E001C083E08B1510F474
:10509000B81A01C0B12CA1110BC0F6018B2D90E202
:1050A000882319F091938150FBCFCB0CD11CB12CEC
:1050B000662331F0F601608396012F5F3F4F69014F
:1050C000C6010396E2FE05C02EE4F601208331E41A
:1050D00004C02EE6F601208331E631832283FC01F1
:1050E0002B2D30E22223F1F131932150FBCF72FFBF
:1050F00040C0662311F084E001C083E08B1510F4FA
:10510000B81A01C0B12CA1110BC0F6018B2D90E291
:10511000882319F091938150FBCFCB0CD11CB12C7B
:10512000662331F0F601608396012F5F3F4F6901DE
:10513000C6010396E2FE07C029E4F60120832EE4AF
:10514000218326E406C029E6F60120832EE621838A
:1051500026E62283FC012B2D30E2222319F0319325
:105160002150FBCFFC01EB0DF11D10828EEF9FEF64
:10517000B7C0B1E0611101C0B0E04B2F50E018168C
:10518000190624F49C012F5F3F4F02C021E030E05C
:10519000240F351F112329F0412F50E04F5F5F4F3F
:1051A00002C040E050E0420F531F2B2D30E0421769
:1051B000530714F4B41A01C0B12C2E2D287159F4E0
:1051C000F6012B2D30E2222319F031932150FBCF31
:1051D000CB0CD11CB12CBB2331F0F60160839601BE
:1051E0002F5F3F4F6901A1110BC0F6012B2D30E35A
:1051F000222319F031932150FBCFCB0CD11CB12CC1
:10520000F80E0A81372F3071A32E74FF03C00133CB
:1052100009F4FA941F142CF42F2D293018F028E0EB
:1052200001C021E0682F392F97FF02C060E030E015
:10523000462F532F612C712C3EE2932EBC01621B32
:1052400071099B01DC01A41BB50BE1E0F0E0EC0F60
:10525000FD1FAE0FBF1FE12EF12CF194E194F10878
:105260004F3FFFEF5F0731F4F6019082B6016F5FA9
:105270007F4F6B01841795074CF02417350734F4E2
:10528000BD01660D771DFB01118101C010E3415086
:105290005109FFEF6F1A7F0AB6016F5F7F4F4E15FE
:1052A0005F0524F0F60110836B01DACF4817590728
:1052B00039F4063320F4053319F4A11001C011E3C9
:1052C000F6011083FB018B2D90E2882319F0919356
:1052D0008150FBCFFB01EB0DF11D108280E090E0CF
:1052E00029960FB6F894DEBF0FBECDBFDF91CF91E8
:1052F0001F910F91FF90EF90DF90CF90BF90AF90F4
:105300009F907F906F900895283008F027E0332712
:10531000DA01990F311D87FD9160009661057105D5
:1053200039F432602E5F3D9330E32A95E1F708951A
:105330009F3F30F080387105610509F03C5F3C5FAC
:105340003D93913008F08068911DDF93CF931F93B8
:105350000F93FF92EF92192F987F9695E92F9695CC
:105360009695E90FFF27E455FD4F99273327EE2443
:10537000FF24A701E70105900894079428F4360F4D
:10538000E71EF81E491F511D660F771F881F991FC2
:105390000694A1F70590079428F4E70EF81E491F1C
:1053A000561FC11D770F881F991F661F0694A1F70E
:1053B0000590079428F4F80E491F561FC71FD11DEA
:1053C000880F991F661F771F0694A1F70590079411
:1053D00020F4490F561FC71FD81F990F661F771F4C
:1053E000881F0694A9F784911095177041F0D695FF
:1053F000C79557954795F794E7941A95C1F7E2E555
:10540000F2E068941590159135916591959105900C
:105410007FE27395E118F10A430B560BC90BD009D3
:10542000C0F7E10CF11E431F561FC91FD01D7EF4AB
:10543000703311F48A95E6CFE894015030F0080FEC
:105440000AF40027021708F4202F2395022F7A333D
:1054500028F079E37D932A95E9F710C07D932A958A
:1054600089F6069497956795379517951794E118DF
:10547000F10A430B560BC90BD00998F023957E9186
:1054800073957A3308F070E37C932013B8F77E911C
:1054900070617D9330F0839571E37D9370E32A957D
:1054A000E1F71124EF90FF900F911F91CF91DF91C1
:1054B000992787FD90950895992788270895DC01FD
:1054C000FC01672F71917723E1F7329704C07C913B
:1054D0006D9370836291AE17BF07C8F3089513E010
:1054E000C4E5D3E000E005C022970109FE010BBF2F
:1054F00077D9C835D10780E00807B1F7F894FFCF16
:1055000000007E0780000000000000000000010095
:1055100000000002014750535F4C41540047505374
:105520005F4C4F4E004750535F414C54004750531F
:105530005F47524F554E445F5350454544004750D6
:10554000535F33445F5350454544004750535F47D2
:10555000524F554E445F434F5552534500475053A9
:105560005F4E554D5F53415453004750535F46497A
:105570005800494D555F524F4C4C00494D555F50B6
:105580004954434800494D555F48454144494E47B9
:10559000004143435F5A45524F004D41475F4341ED
:1055A0004C4942524154450044485432325F5445BC
:1055B0004D500044485432325F48554D0052454CDE
:1055C00041595F42494C47455F50500052454C415C
:1055D000595F4C414E5445524E0052454C41595F23
:1055E000574950455200564F4C544147450043558A
:1055F0005252454E54004C45445F524544004C4580
:10560000445F475245454E004C45445F424C55452A
:10561000004F464600535441545553004552523AA8
:105620004750535F4241445F5041594C4F41445FA2
:105630004C454E4754482121004552523A47505359
:105640005F43484B2121004552523A4750535F5423
:10565000494D454F555421210024617264752C0039
:105660002A00300000000000E61B0D1E3C1B551BED
:10567000471BC51B0D0A006E616E00696E66006FE8
:065680007666002E00001A
:00000001FF
