:10000000CBC10000FAC10000F8C10000F6C1000039
:10001000F4C10000F2C10000F0C10000EEC1000018
:10002000ECC10000EAC10000E8C10000E6C1000028
:10003000E4C10000E2C10000E0C10000DEC1000038
:10004000DCC10000DAC10000D8C10000D6C1000048
:10005000D4C10000D2C10000D0C100000C94471BE5
:10006000CCC100000C94E11E0C94171FC6C1000007
:10007000C4C10000C2C10000C0C10000BEC1000078
:10008000BCC10000BAC10000B8C10000B6C1000088
:100090000C948C1F0C94C21FB0C10000AEC10000B4
:1000A000ACC10000AAC10000A8C10000A6C10000A8
:1000B000A4C10000A2C10000A0C100009EC10000B8
:1000C0009CC100009AC1000098C1000096C10000C8
:1000D00094C1000092C1000090C100008EC10000D8
:1000E0008CC10000520A5F0AC30AC30A800A8C0A44
:1000F000980AC30AC30AAF0AB50ABB0A9619A2191D
:10010000A619AC19B119C519CE19D419D919DE1906
:10011000DE19DE19DE19DE19DE19DE19DE19DE1927
:10012000DE19DE19DE19DE19DE19DE19DE19DE1917
:10013000DE19DE19DE19DE19DE19DE1996199B1992
:10014000A219A619AC19B119B719BB19C019A21C6B
:10015000A51C941C981C9E1CDC1CA91CAD1CB31C6B
:10016000B71CBB1CC11CC51CC91CDC1CCF1CD31C70
:10017000D71C00000A0B02090C0D0E08070304012E
:10018000000000000000000000000000000000006F
:10019000000000000000000000000000000012113C
:1001A000100000000000000000000000000000003F
:1001B00000000000000000000102102020080810CC
:1001C00020401020408002010201080402010102C7
:1001D00004081020408080402010080402018004A0
:1001E00002018040201008040201080402010102FB
:1001F00004081020408001020408102040800505FA
:100200000505070508080808020202020A0A08088C
:1002100004040404010101010101010103030303BA
:1002200003030303040707070C0C0C0C0C0C0C0C49
:100230000202020206060606060606060B0B0B0B5A
:100240000B0B0B0B000020002300260029002C00C4
:100250002F00320000010000030106010901000027
:100260002200250028002B002E003100340002015E
:100270000000050108010B010000210024002700F7
:100280002A002D00300033000101000004010701A5
:100290000A0100407A10F35A00A0724E18090010AB
:1002A000A5D4E80000E87648170000E40B540200EB
:1002B00000CA9A3B000000E1F50500008096980016
:1002C000000040420F000000A0860100000010273F
:1002D00000000000E80300000000640000000000CF
:1002E0000A00000000000100000000002C76D88801
:1002F000DC674F0823DFC1DFAE59E1B1B796E5E314
:10030000E453C63AE651997696E8E6C28426EB892C
:100310008C9B62ED407C6FFCEFBC9C9F40F2BAA5C9
:100320006FA5F490055A2AF75C936B6CF9676DC161
:100330001BFCE0E40D47FEF520E6B500D0ED902E65
:100340000300943577050080841E080000204E0AC3
:10035000000000C80C333333330F986E1283114101
:10036000EF8D2114893BE65516CFFEE6DB18D184CC
:100370004B381BF77C1D901DA4BBE42420328472F3
:100380005E228100C9F124ECA1E53D276602690ED9
:10039000A01A491FF41F170F11241FBECFEFD1E27F
:1003A000DEBFCDBF00E00CBF13E0A0E0B2E0ECE3A5
:1003B000FAE500E00BBF02C007900D92AC37B10721
:1003C000D9F727E0ACE7B3E001C01D92AD30B2072A
:1003D000E1F713E0C6E9D3E000E006C02297010987
:1003E000FE010BBF0E944B26CC38D10780E00807E6
:1003F000A9F70E9438200C940D2D02CECF92DF92E7
:10040000EF92FF920F931F93CF93DF9300D01F9231
:100410001F92CDB7DEB726E040E052EC61E070E01D
:100420008AE696E00E94811E8AE194E0D1D783EEAD
:1004300093E00DD340E050E066E38FE893E00AD20A
:1004400084EB95E00E94A31A60E08AE20E94161DE8
:1004500061E08AE20E94DD1C60E08CE20E94161DD1
:1004600061E08CE20E94DD1C60E08EE20E94161DBD
:1004700061E08EE20E94DD1C8E010F5F1F4F80E362
:10048000E82EF12C6801C7010E948F2AF8018193A0
:100490008F01FFEFEF1AFF0A86E3E816F10499F7E0
:1004A00085E0F601A8E8B3E001900D928A95E1F7A6
:1004B0000F900F900F900F900F90DF91CF911F91A1
:1004C0000F91FF90EF90DF90CF90089545E263E2A7
:1004D0008DE893E00C9451150F931F930E94911B8C
:1004E00060937C0370937D0380937E0390937F03DE
:1004F00083EE93E059D58AE194E00E94420F8AE6A8
:1005000096E00E94731D892B51F08AE696E00E94C6
:100510008C1D682F87E095E00E94191AF0CF8DE8B6
:1005200093E00E947F1520918A0340918903609196
:1005300088038DE893E00E94AC158DE893E00E945B
:1005400080150E94911B00918403109185032091D6
:10055000860330918703601B710B820B930B683EFF
:1005600073408105910570F00E94911B6093840394
:100570007093850380938603909387038FE893E0BD
:1005800087D125C00E94911B0091800310918103A7
:100590002091820330918303601B710B820B930BBC
:1005A000643671058105910590F00E94911B60935E
:1005B000800370938103809382039093830384EB81
:1005C00095E00E94C91A8AE194E00E948B0B0E9478
:1005D000911B00917C0310917D0320917E0330914B
:1005E0007F03601B710B820B930B633071058105D8
:1005F000910590F40E94911B00917C0310917D0362
:1006000020917E0330917F03601B710B820B930B53
:100610001F910F910C94C01B1F910F910895CF93C0
:10062000DF93EC010E94911B685B7B40810991097B
:100630006D8B7E8B8F8B988FDF91CF9108952F924A
:100640003F924F925F926F927F928F929F92AF9262
:10065000BF92CF92DF92EF92FF920F931F93CF93AF
:10066000DF931F92CDB7DEB71C010E94911BF101F1
:1006700085889688A788B08C2B013C0148185908BA
:100680006A087B08218932892130310539F447EE27
:10069000842E43E0942EA12CB12C06C03FEC832E77
:1006A00037E0932EA12CB12C481459046A047B0422
:1006B00008F4BCC0F101658B768B878B908F80E04E
:1006C00090E0A0ECBFE780879187A287B3878487FB
:1006D0009587A687B78760E080890E94161D61E034
:1006E000F10180890E94DD1CF101818992890197C5
:1006F00039F462E170E080E090E00E94C01B04C029
:1007000080E293E00E94F71B60E0F10180890E9483
:10071000DD1C61E0F10180890E94161D2DEF922EF3
:100720000E949D1B762EF92DF1708F2EAF2EBB24CB
:10073000A7FCB0940E949D1B67196B3518F081E0EF
:1007400090E02FC0F101808969830E944B1D69816F
:100750008A159B0579F397FC07C0882029F0000FC4
:10076000111F6F3108F00160FFE19F1639F08FE330
:10077000981205C0780100E010E001C06801939470
:10078000E0E59E12CDCF6D2D7727AF2CB12C8E2DAD
:100790008C0D860F8F0D90E08017910731F082E06D
:1007A00090E0F101948B838B41C0F10181899289A2
:1007B000019779F480E090E00E94C924F1016487F8
:1007C000758786879787B50180E090E00E94C924ED
:1007D00025C0B60180E090E00E94C9242DEC3CECDD
:1007E0004CEC5DE30E945725F1016487758786878D
:1007F0009787C70197FF05C09F77EE24FF24E81A6B
:10080000F90AB701882777FD8095982F0E94CB249D
:100810002DEC3CEC4CEC5DE30E945725F101608728
:10082000718782879387F101148A138A0F90DF9171
:10083000CF911F910F91FF90EF90DF90CF90BF90DD
:10084000AF909F908F907F906F905F904F903F9070
:100850002F9008950F931F93CF93DF93EC018A019C
:10086000688B5A8B498BDBDE012B69F482E090E0C8
:100870009A8B898BCE01E3DE8B899C89813091052F
:1008800011F49A8B898BDF91CF911F910F9108956D
:10089000CF93DF93EC01D3DE4C855D856E857F853C
:1008A0004C835D836E837F83488559856A857B850C
:1008B000488359836A837B83DF91CF910895109297
:1008C000B9008CE08093B80084E08093BC00089568
:1008D0008FEF90E02091BC0027FD05C00197D1F774
:1008E0001092BC0008950895EF92FF920F931F930A
:1008F000CF93DF931F92CDB7DEB78C018CEBE82E40
:10090000F12C84EAF7018083C8016983E1DF698102
:100910006093BB0084E8F7018083C8010F90DF91EA
:10092000CF911F910F91FF90EF90D2CF6093BB00BA
:1009300024E82093BC00CCCF0F931F93CF93DF9379
:100940001F921F92CDB7DEB78C01660F2A834983B1
:10095000CBDF4981642FC801E9DF2A81622FC801FA
:10096000E5DF84E98093BC000F900F90DF91CF9179
:100970001F910F910895CF93DF931F92CDB7DEB7EC
:10098000662311F024EC01C024E82093BC006983A5
:100990009FDF8091BB006981611103C094E990934E
:1009A000BC000F90DF91CF910895CF92DF92FF921C
:1009B0000F931F93CF93DF931F921F92CDB7DEB794
:1009C0008C01F22E660F616049835A838DDFFA94A1
:1009D0004981C42E5A81D52EFFEFFF1659F061E0F0
:1009E000F11001C060E0C801C6DFF60181936F011C
:1009F000FA94F2CF0F900F90DF91CF911F910F914A
:100A0000FF90DF90CF900895CF92DF92EF92FF9208
:100A10000F931F93CF93DF931F92CDB7DEB76C0177
:100A2000162F7901660F49835FDF4981642FC60164
:100A30007DDF202FA701612FC6010F90DF91CF919D
:100A40001F910F91FF90EF90DF90CF90AECF0F935B
:100A50001F93CF93DF9300D000D0CDB7DEB78C01CA
:100A60008DEE94E00E944115F80115AA14AA13AA6C
:100A700012AA11AA10AA00E012E0BE016F5F7F4F18
:100A80008DEE94E00E94710F65E070E080E090E0F0
:100A90000E94C01B0150110981F726960FB6F894E9
:100AA000DEBF0FBECDBFDF91CF911F910F91089593
:100AB0002F923F924F925F926F927F928F929F926E
:100AC000AF92BF92CF92DF92EF92FF920F931F935C
:100AD000CF93DF93CDB7DEB76A970FB6F894DEBF3A
:100AE0000FBECDBF9A8B898B0E949D1B6B017C0131
:100AF0008091DD039091DE03B601681B790B80E0E5
:100B000090E00E94C92429E134E442E951E30E94C3
:100B100057252B013C01D092DE03C092DD038E01EC
:100B20000F5F1F4FA6E08A2EA2E09A2EA988BA88EE
:100B3000C12CD12C76011D861801D5015E966D91D0
:100B40007C915F97882777FD8095982F0E94CB2412
:100B5000A30192010E945725F8016193719381933B
:100B600091938F01F40180819181A281B381AC01C5
:100B7000BD01E4E07595679557954795EA95D1F7DE
:100B8000841B950BA60BB70BF501408D518D662785
:100B900057FD6095762F840F951FA61FB71FF40190
:100BA00081939193A193B1934F01F4E0B595A795EB
:100BB00097958795FA95D1F7F501958784879C01DC
:100BC000DC010E942026C60ED71EE81EF91EFD85F8
:100BD000FF5FFD8782E0A80EB11CF33009F0ADCFB6
:100BE000B10181ED93E041D3B10185EC93E03DD3B8
:100BF000A4E6B0E0A70196010E943B2620E030E089
:100C000044E050E00E94FE25490199E4891A9108C8
:100C100081EDE82E83E0F82E99EBA92E93E0B92E12
:100C200025ECC22E23E0D22E3DEA232E33E0332ED4
:100C300009891A891D86ACE38A16910448F520E0DB
:100C400030E046E154E4F701608171818281938153
:100C50000E9457252B013C01D8011C966D917C9177
:100C60001D97882777FD8095982F0E94CB249B01A4
:100C7000AC01C301B2010E94CC2320E037E14AED70
:100C80005AE30E945725F70160837183828393831F
:100C9000D7016D917D918D919D917D010E94982448
:100CA000F50161937193819391935F0120E030E0AE
:100CB0004AE753E4D6016D917D918D919C910E94FC
:100CC00057252B013C01F80162897389882777FD3C
:100CD0008095982F0E94CB249B01AC01C301B201E7
:100CE0000E94CC2320EC3CE842E85BE30E945725BD
:100CF000D6016D937D938D939D936D010E949824F1
:100D0000F10161937193819391931F01FD85FF5FC1
:100D1000FD870E5F1F4FF33009F08DCF6091B9034F
:100D20007091BA038091BB039091BC038090C10382
:100D30009090C203A090C303B090C4039B01AC0188
:100D40000E94BA256B017C01A5019401C501B40183
:100D50000E94BA25C60ED71EE81EF91E6091BD037B
:100D60007091BE038091BF039091C0039B01AC01C1
:100D70000E94BA256C0D7D1D8E1D9F1D0E94CB24E7
:100D800025D26093A9037093AA038093AB03909339
:100D9000AC032091C1033091C2034091C303509131
:100DA000C4036091B9037091BA038091BB03909121
:100DB000BC035BD1BC01882777FD8095982F0E94EA
:100DC000CB2420E030E040E251E40E943024A989A5
:100DD000BA896D937D938D939C931397C701B60148
:100DE0000E94CB246B017C01F1D1A70196010E94E6
:100DF00057250E9498249B01AC016091BD0370911E
:100E0000BE038091BF039091C0032FD1BC018827FE
:100E100077FD8095982F0E94CB2420E030E040E2BF
:100E200051E40E943024E989FA89648375838683BA
:100E300097838091AD039091AE03A091AF03B091E1
:100E4000B0038D879E87AF87B88B8090B903909051
:100E5000BA03A090BB03B090BC034090B503509080
:100E6000B6036090B7037090B8038091C10390916E
:100E7000C203A091C303B091C4038B8B9C8BAD8B39
:100E8000BE8B2091C9033091CA034091CB0350918E
:100E9000CC03C701B6010E9457256F8B788F898FCD
:100EA0009A8F2D853E854F855889C501B4010E94D2
:100EB000BA256B017C01A30192016B897C898D8924
:100EC0009E890E94BA25C60ED71EE81EF91EC701CC
:100ED000B6010E94CB242091D5033091D6034091D6
:100EE000D7035091D8030E9457259B01AC016F890D
:100EF000788D898D9A8D0E94CB232091A903309102
:100F0000AA034091AB035091AC030E9457250E9465
:100F100098246B017C01A3019201C501B4010E94D8
:100F2000BA254B015C012D853E854F8558896B891B
:100F30007C898D899E890E94BA25861A970AA80AFB
:100F4000B90AA7019601C501B4018FD0BC01882759
:100F500077FD8095982F0E94CB2420E030E040E27E
:100F600051E40E943024A989BA8918966D937D9323
:100F70008D939C931B976A960FB6F894DEBF0FBEB5
:100F8000CDBFDF91CF911F910F91FF90EF90DF9038
:100F9000CF90BF90AF909F908F907F906F905F9019
:100FA0004F903F902F9008950F931F93CF93DF930F
:100FB000EC010E94911B0091DF031091E00320914E
:100FC000E1033091E203601B710B820B930B6436DB
:100FD00071058105910588F0BE016E5E7F4F8DEE33
:100FE00094E00E949E110E94911B6093DF03709316
:100FF000E0038093E1039093E203BE01685E7F4FBC
:101000008DEE94E00E943111CE0152DDBE01665D8D
:101010007F4F8DEE94E065D78AE892E00E94F71B3F
:10102000BE01605D7F4F8DEE94E05BD740E0E3E072
:10103000F0E028A939A98AA59BA5280F391F8CA102
:101040009DA1820F931FBF010E94C9257F8F6E8FC4
:10105000359527953DA32CA34F5F2296433049F742
:10106000DF91CF911F910F9108954F925F926F92F0
:101070007F928F929F92AF92BF92CF92DF92EF9228
:10108000FF92CF93DF9300D01F92CDB7DEB76B01F5
:101090007C0129013A010E94CB244B015C01C30170
:1010A000B2010E94CB249B01AC01C501B4010E9496
:1010B00030244B015C01B701A601F7FE07C04427AD
:1010C0005527BA014C195D096E097F09D301C20188
:1010D00077FE07C088279927DC0184199509A6099E
:1010E000B709481759076A077B078CF520E030E4F9
:1010F0004FE054E4C501B4010E94572569837A8307
:101100008B839C8329E23CE54FE85EE3C501B40193
:101110000E945725A50194010E94572520E030E048
:1011200040E85FE30E94CC239B01AC0169817A8196
:101130008B819C810E9430240E9498249B0177FE21
:1011400031C0F7FC2DC09B01285F384F2BC020E039
:1011500030E44FE054E4C501B4010E9457252B014F
:101160003C01A5019401C501B4010E94572529E263
:101170003CE54FE85EE30E94CC239B01AC01C30138
:10118000B2010E9430249B01AC0160E070E081E676
:1011900094E40E94CB230E9498249B01F7FE02C096
:1011A00028503740C9010F900F900F900F90DF919A
:1011B000CF91FF90EF90DF90CF90BF90AF909F9036
:1011C0008F907F906F905F904F9008954F925F92B5
:1011D0006F927F928F929F92AF92BF92CF92DF9247
:1011E000EF92FF924B015C01DC01CB01B595A79515
:1011F000979587953FEDC32E39E5D32E37E3E32E40
:101200003FE5F32EC81AD90AEA0AFB0A20E030E0CB
:1012100040E05FE3C701B6010E9457252B013C0166
:10122000A7019601C501B4010E945725A7019601A7
:101230000E9457259B01AC0160E070E080E490E4DF
:101240000E94CB239B01AC01C301B2010E94572530
:10125000FF90EF90DF90CF90BF90AF909F908F90D6
:101260007F906F905F904F9008952F923F924F9292
:101270005F926F927F928F929F92AF92BF92CF9226
:10128000DF92EF92FF920F931F93CF93DF9300D0E3
:101290001F92CDB7DEB78C011B01FC0180809180CD
:1012A000A280B380C480D580E680F78040845184DA
:1012B00062847384FB012081318142815381C501A5
:1012C000B4010E94572569837A838B839C83F10143
:1012D0002481358146815781C701B6010E94572577
:1012E0009B01AC0169817A818B819C810E94CC2316
:1012F0009B01AC01C301B2010E94CB23F8016087BE
:10130000718782879387F1012081318142815381E6
:10131000C301B2010E94572569837A838B839C8322
:10132000F1012085318542855385C701B6010E94B0
:1013300057259B01AC0169817A818B819C810E9438
:10134000CB239B01AC01C501B4010E94CC23F80161
:101350006083718382839383F10124813581468187
:101360005781C301B2010E9457252B013C01F101B5
:101370002085318542855385C501B4010E945725DA
:101380009B01AC01C301B2010E94CC239B01AC01C3
:10139000C701B6010E94CC23F8016483758386835C
:1013A00097830F900F900F900F90DF91CF911F9127
:1013B0000F91FF90EF90DF90CF90BF90AF909F90F4
:1013C0008F907F906F905F904F903F902F900895F7
:1013D0000F931F93CF93DF93EC0126E040E052EC94
:1013E00061E070E08DEC95E00E94811E64E670E0A3
:1013F000CE010E94D1208E010A5F1F4F64E670E08B
:10140000C8010E94D1206CE673E0C8010E946021EF
:101410000A5F1F4F64E170E0C8010E94D1206CE6B2
:1014200073E0C8010E9460210A5F1F4F64E170E011
:10143000C8010E94D1206CE673E0C8010E946021BF
:10144000188EDF91CF911F910F910895AF92BF92A7
:10145000CF92DF92EF92FF920F931F93CF93DF9380
:101460007C015B01EA0185E4C82E84E0D82E00E00F
:1014700010E0B601C5010E94022396E0C90ED11CFE
:10148000811106C00F5F1F4F0631110591F77BC018
:10149000F8013A97EC30F10508F075C0EE58FF4FAF
:1014A0000C941A268DEE94E0DF91CF911F910F914D
:1014B000FF90EF90DF90CF90BF90AF90E7C56DE2C7
:1014C00072E0CE010E941423882369F08DEE94E02F
:1014D000DF91CF911F910F91FF90EF90DF90CF9010
:1014E000BF90AF9023C78DEE94E0DF91CF911F9115
:1014F0000F91FF90EF90DF90CF90BF90AF901AC701
:101500006DE272E0CE010E941423882311F061E0A5
:1015100001C060E08AE217C06DE272E0CE010E9475
:101520001423882311F061E001C060E08CE20BC05D
:101530006DE272E0CE010E941423882311F061E075
:1015400001C060E08EE2DF91CF911F910F91FF907B
:10155000EF90DF90CF90BF90AF900C94161DCE010E
:101560000E94C023609388030BC0CE010E94C02359
:101570006093890305C0CE010E94C02360938A0353
:1015800081E0F701808FDF91CF911F910F91FF9044
:10159000EF90DF90CF90BF90AF9008954F925F9201
:1015A0006F927F928F929F92AF92BF92CF92DF9273
:1015B000EF92FF920F931F93CF93DF9300D000D051
:1015C000CDB7DEB77C018B01412C40E050E06CE2EE
:1015D000C8010E9432238F3F2FEF920729F0AC0100
:1015E0004F5F5F4F4394F3CF4694512CC12CD12CC5
:1015F00047018CE0880E911C5701E2E1AE0EB11C50
:10160000541409F450C0A6016CE2C8010E943223B0
:1016100001963C01AC016CE2C8010E9432236C01CE
:101620009C01A301B801CE0101960E945023BE0186
:101630006F5F7F4FC4010E945521CE0101960E9429
:10164000A3203601FFEF6F1A7F0AA3016CE2C801E5
:101650000E9432236C019C01A301B801CE010196C6
:101660000E945023BE016F5F7F4FC5010E9455212C
:10167000CE0101960E94A3206AE2C5010E944D237B
:10168000019659F06AE2C5010E944D236C0143E0C6
:1016900050E0BC01C5010E949323A501B401C7011C
:1016A000D5DE5394ADCFF701808D882391F0108E55
:1016B00098E8E92E93E0F92E00E310E0F70161913C
:1016C0007F01C8010E94972A0F5F1F4F0633110543
:1016D000A9F726960FB6F894DEBF0FBECDBFDF91F7
:1016E000CF911F910F91FF90EF90DF90CF90BF901F
:1016F000AF909F908F907F906F905F904F900895E4
:101700006F5F7F4F80E0FB019191BF019A3211F032
:101710008927F9CF0895FF920F931F93CF93DF93FB
:1017200000D000D0CDB7DEB78C0165E172E00E9439
:10173000602180911904813009F483C108F45BC0F1
:10174000823009F4DEC1833009F06EC267EB74E0C9
:10175000C8010E94AB226AE172E0C8010E94B12276
:101760006091880370E04AE0CE0101960E94A221B8
:10177000BE016F5F7F4FC8010E94AB22CE01019670
:101780000E94A3206AE172E0C8010E94B1226DEBC1
:1017900074E0C8010E94AB226AE172E0C8010E94B5
:1017A000B1226091890370E04AE0CE0101960E9467
:1017B000A221BE016F5F7F4FC8010E94AB22CE0104
:1017C00001960E94A3206AE172E0C8010E94B12242
:1017D00063EC74E0C8010E94AB226AE172E0C801C8
:1017E0000E94B12260918A0370E04AE0CE01019626
:1017F0000E94A2210FC265E474E0C8010E94AB22DE
:101800006AE172E0C8010E94B12287E095E00E947F
:10181000A017AB01BC0126E0CE0101960E94532225
:10182000BE016F5F7F4FC8010E94AB22CE010196BF
:101830000E94A3206AE172E0C8010E94B1226BE419
:1018400074E0C8010E94AB226AE172E0C8010E9404
:10185000B12287E095E00E94CC17AB01BC0126E0E5
:10186000CE0101960E945322BE016F5F7F4FC801D7
:101870000E94AB22CE0101960E94A3206AE172E091
:10188000C8010E94B12261E574E0C8010E94AB2248
:101890006AE172E0C8010E94B1221092460560918F
:1018A0004B0570914C0580914D0590914E050E941D
:1018B000CB2420E030E048EC52E40E943024AB011D
:1018C000BC0122E0CE0101960E945322BE016F5F4F
:1018D0007F4FC8010E94AB22CE0101960E94A32037
:1018E0006AE172E0C8010E94B12267E574E0C801B4
:1018F0000E94AB226AE172E0C8010E94B1221092FC
:10190000460560914B0570914C0580914D05909175
:101910004E050E94CB2426E53EE04DEE5FE30E949B
:10192000572520E030E048EC52E40E943024AB011F
:10193000BC0122E0CE0101960E945322BE016F5FDE
:101940007F4FC8010E94AB22CE0101960E94A320C6
:101950006AE172E0C8010E94B1226DE574E0C8013D
:101960000E94AB226AE172E0C8010E94B12210928B
:1019700054056091590570915A0580915B059091CD
:101980005C050E94CB2420E030E048EC52E40E9449
:101990003024AB01BC0122E0CE0101960E9453220B
:1019A000BE016F5F7F4FC8010E94AB22CE0101963E
:1019B0000E94A3206AE172E0C8010E94B12263E69E
:1019C00074E0C8010E94AB226AE172E0C8010E9483
:1019D000B122109270054091750550917605609185
:1019E0007705709178052AE0CE0101960E94F921D1
:1019F000BE016F5F7F4FC8010E94AB22CE010196EE
:101A00000E94A3206AE172E0C8010E94B12269E647
:101A100074E0C8010E94AB226AE172E0C8010E9432
:101A2000B12210927E05409183055091840560910A
:101A30008505709186052AE0CE0101960E94CD2190
:101A4000E9C06FE674E0C8010E94AB226AE172E06F
:101A5000C8010E94B1224091E3035091E4036091D8
:101A6000E5037091E60321E0CE0101960E94252254
:101A7000BE016F5F7F4FC8010E94AB22CE0101966D
:101A80000E94A3206AE172E0C8010E94B12265E7CA
:101A900074E0C8010E94AB226AE172E0C8010E94B2
:101AA000B1224091E7035091E8036091E9037091FE
:101AB000EA0321E0CE0101960E942522BE016F5F5C
:101AC0007F4FC8010E94AB22CE0101960E94A32045
:101AD0006AE172E0C8010E94B1226BE774E0C801BC
:101AE0000E94AB226AE172E0C8010E94B1224091DB
:101AF000EB035091EC036091ED037091EE0321E054
:101B000085C06DE874E0C8010E94AB226AE172E012
:101B1000C8010E94B12240918F03509190036091BF
:101B200091037091920321E0CE0101960E9425223B
:101B3000BE016F5F7F4FC8010E94AB22CE010196AC
:101B40000E94A3206AE172E0C8010E94B12263E909
:101B500074E0C8010E94AB226AE172E0C8010E94F1
:101B6000B122409193035091940360919503709139
:101B7000960321E0CE0101960E942522BE016F5FEF
:101B80007F4FC8010E94AB22CE0101960E94A32084
:101B90006AE172E0C8010E94B1226BEA74E0C801F8
:101BA0000E94AB226AE172E0C8010E94B12240911A
:101BB000B8055091B9056091BA057091BB0523E055
:101BC000CE0101960E942522BE016F5F7F4FC801A2
:101BD0000E94AB22CE0101960E94A3206AE172E02E
:101BE000C8010E94B12261EB74E0C8010E94AB22DF
:101BF0006AE172E0C8010E94B1224091B40550919F
:101C0000B5056091B6057091B70523E0CE01019648
:101C10000E942522BE016F5F7F4FC8010E94AB2248
:101C2000CE0101960E94A3206CE172E0C8010E94DF
:101C3000B122F80160817181C80162DDF82EFFE0F8
:101C4000F81728F06EE172E0C8010E94B12240E16D
:101C50006F2DCE0101960E947621BE016F5F7F4FEE
:101C6000C8010E94AB22CE0101960E94A320B801B8
:101C70008DEC95E00E949320809119048F5F843051
:101C800018F48093190402C01092190426960FB616
:101C9000F894DEBF0FBECDBFDF91CF911F910F91A2
:101CA000FF900895CF936F5F7F4FC0E0FB012191BC
:101CB000BF012A3211F0C227F9CF40E150E060E0C5
:101CC00070E0CF010E948E2881E0C61380E0CF91A2
:101CD000089560E272E085E494E00E940B2168E2DE
:101CE00072E08BE494E00E940B2160E372E081E5F6
:101CF00094E00E940B2167E472E087E594E00E9483
:101D00000B216CE572E08DE594E00E940B216EE6FC
:101D100072E083E694E00E940B216BE772E089E6B3
:101D200094E00E940B2164E872E08FE694E00E9448
:101D30000B216DE872E085E794E00E940B2167E9D2
:101D400072E08BE794E00E940B2163EA72E081E885
:101D500094E00E940B216CEA72E087E894E00E9414
:101D60000B216AEB72E08DE894E00E940B2165EC98
:101D700072E083E994E00E940B216FEC72E089E944
:101D800094E00E940B216EED72E08FE994E00E94D6
:101D90000B216CEE72E085EA94E00E940B2168EF63
:101DA00072E08BEA94E00E940B2160E073E081EB2B
:101DB00094E00E940B2168E073E087EB94E00E94BE
:101DC0000B2160E173E08DEB94E00E940B216AE14E
:101DD00073E083EC94E00E940B2163E273E083E301
:101DE00094E00E940B216DE272E089E394E00E948E
:101DF0000B2167E273E08FE394E00E940B216CE615
:101E000073E08AE194E00E940B216CE673E080E2CB
:101E100094E00E940B216CE673E086E294E00E945D
:101E20000B216CE673E08CE294E00C940B21CF93D1
:101E3000DF938CE294E00E94A32086E294E00E946B
:101E4000A32080E294E00E94A3208AE194E00E9413
:101E5000A3208FE394E00E94A32089E394E00E94F2
:101E6000A32083E394E00E94A320C9ECD4E026974A
:101E7000CE010E94A32084E0C534D807C1F7DF91CA
:101E8000CF9108950F931F93CF93DF93EC018C01B3
:101E90000A5F1F4F8DEC95E00E94731D892BE1F0C6
:101EA0008DEC95E00E948C1D8A3039F08D3029F040
:101EB000682FC8010E94C022EDCF6E817F81CE01C4
:101EC000F1DE882319F0B801CE0168DB6CE673E01F
:101ED000C8010E946021DECFDF91CF911F910F9149
:101EE00008958F929F92AF92BF92EF92FF920F93BD
:101EF0001F93CF93DF9300D000D0CDB7DEB77B0127
:101F000006E09E012F5F3F4F43E468E688EA93E0D6
:101F10000E940405898190E0982F88272A81822BCE
:101F20009595879595958795D70113969C938E9354
:101F300012978B8190E0982F88272C81822B919586
:101F400081959109959587959595879511969C937F
:101F50008E938D8190E0982F88272E81822B9195EA
:101F600081959109959587959595879515969C935B
:101F70008E931497209112023091130212161306B9
:101F80000CF04DC00BED14E041EE54E0B70121150B
:101F9000B2E03B0729F4FA01108211821282138207
:101FA000DB018D919C91AA2797FDA095BA2FFA018C
:101FB00080809180A280B380880D991DAA1DBB1DD1
:101FC00081939193A193B193AF01FB01119211926F
:101FD000BF012130310521F0D8011D921C920DC0A6
:101FE0009F5FAF4FBF4FE9E0B595A7959795879550
:101FF000EA95D1F7F801918380830E5F1F4FF4E0DB
:10200000013E1F0721F6215031093093130220931E
:10201000120265E070E080E090E00E94C01B6BED72
:1020200074E0A5EDB4E0FB0181919191BF01F7014E
:1020300020813181281B390B4D915C911197CA0188
:10204000805293402817390734F0805C994F281745
:1020500039070CF4C901F701819391937F018D93A6
:102060009D93F4E0613E7F07F1F626960FB6F89453
:10207000DEBF0FBECDBFDF91CF911F910F91FF90BB
:10208000EF90BF90AF909F908F9008958F929F9206
:10209000AF92BF92CF92DF92EF92FF920F931F9376
:1020A000CF93DF93CDB7DEB76E970FB6F894DEBF50
:1020B0000FBECDBF6C01E12CE2E0FE2E11E006E088
:1020C0009E01275E3F4F4BE368E688EA93E00E945B
:1020D0000405898D90E0982F88272A8D822B33E084
:1020E000959587953A95E1F79C8B8B8B8B8D90E03E
:1020F000982F88272C8D822B53E0959587955A959C
:10210000E1F79E8B8D8B8D8D90E0982F88272E8DFB
:10211000822B73E0959587957A95E1F7988F8F8B51
:10212000FE013196AE014D5E5F4F20E030E0E114DC
:1021300082E0F80621F41082118212821382DA0101
:102140008D909C90AA2497FCA094BA2C80819181B8
:10215000A281B381880D991DAA1DBB1D8193919306
:10216000A193B193DA011D921D92AD01D601A20F88
:10217000B31F12961C921E9211972E5F3F4F26306E
:102180003105A9F6B1E0EB16F10409F04CC0F601F7
:10219000108389819A81AB81BC819F5FAF4FBF4F14
:1021A00049E0B595A795979587954A95D1F792837C
:1021B00081839E878D874D815E816F8178855F5F8A
:1021C0006F4F7F4FA9E07595679557954795AA95ED
:1021D000D1F754834383588B4F8789859A85AB8584
:1021E000BC859F5FAF4FBF4F09E0B595A795979509
:1021F00087950A95D1F79250968385839A8B898B20
:10220000CE010D964C0180E1A82EB12CD4016D9128
:102210004D01C5010E94972ABFEFAB1ABB0AE6E148
:10222000AE16B10499F765E070E080E090E00E949E
:10223000C01BF1E0EF1AF10809F041CF6E960FB61E
:10224000F894DEBF0FBECDBFDF91CF911F910F91EC
:10225000FF90EF90DF90CF90BF90AF909F908F90C6
:102260000895CF92DF92EF92FF920F93CF93DF9377
:1022700000D000D0CDB7DEB76C017B0106E09E0137
:102280002F5F3F4F4BE368E688EA93E00E94040526
:10229000698170E0762F66278A81682BA3E07595A7
:1022A0006795AA95E1F7F701718360834B8150E050
:1022B000542F44278C81482B03E0559547950A9568
:1022C000E1F7538342832D8130E0322F22278E8124
:1022D000282B93E0359527959A95E1F7358324834C
:1022E000F60181819281681B790BF701718360830C
:1022F000F60183819481481B590BF7015383428374
:10230000F60185819681281B390BF70135832483DB
:1023100026960FB6F894DEBF0FBECDBFDF91CF91EA
:102320000F91FF90EF90DF90CF90089522E0FC0195
:102330002783089524E0FC01278308952F923F927C
:102340004F925F926F927F928F929F92AF92BF92C5
:10235000CF92DF92EF92FF920F931F93CF93DF9371
:10236000CDB7DEB72C970FB6F894DEBF0FBECDBF4A
:102370007C016B01DC0117968C9106E09E01295FC0
:102380003F4F811103C043E06EE102C049E468E6BB
:1023900088EA93E00E940405A984B12CBA2CAA24EF
:1023A0008A85A82A222433242A183B080B8510E0AA
:1023B000102F00278C85082B6F8170E0762F662701
:1023C0008885682B882777FD8095982F0E94CB24DD
:1023D000F70120853185428553850E9457250E944B
:1023E00098242B013C01D6016D937C93B80188277A
:1023F00077FD8095982F0E94CB24F70124853585A1
:10240000468557850E9457250E9498244B015C0100
:10241000D60113967C936E931297B101882777FDAE
:102420008095982F0E94CB24F70120893189428919
:1024300053890E9457250E949824D60115967C93B3
:102440006E931497F70124893589421A530A11961D
:102450005C924E9226893789A401421B530B139636
:102460005C934E931297208D318D621B730B1596E2
:102470007C936E93149787818230F9F4D701A6017B
:102480006FEC74E089EC94E055961C921E92549780
:10249000FA0121913191AF01FB0121933193BF01E9
:1024A000FC0121933193CF011296F4E0653D7F0743
:1024B00059F783E0D70117968C93F7018781833012
:1024C00001F5EFECF4E049EC54E0D6018D919D91DB
:1024D0006D01208131818217930714F491838083E9
:1024E000DA012D913C9111972817390714F48D9337
:1024F0009C9332964E5F5F4FB4E0E53DFB0729F7B2
:1025000044C0843009F041C06FEC74E029EC34E041
:10251000D701FB0181919191BF01F9014191519145
:102520009F01840F951F9595879555969C938E9343
:1025300054971296F4E0653D7F0759F781E0D70183
:1025400017968C93179754968D919C9155979A83D3
:10255000898356968D919C9157979C838B8358962F
:102560008D919C9159979E838D83FE0131967F01B9
:1025700000E210E0D7016D917D01C8010E94972A09
:102580000F5F1F4F06321105A9F72C960FB6F8946E
:10259000DEBF0FBECDBFDF91CF911F910F91FF9096
:1025A000EF90DF90CF90BF90AF909F908F907F90F3
:1025B0006F905F904F903F902F90089520E84BE6EA
:1025C00068E688EA93E00E949C0464E670E080E09C
:1025D00090E00E94C01B23E04BE668E688EA93E0A7
:1025E0000E949C0465E070E080E090E00E94C01BC7
:1025F00023E04AE168E688EA93E00E949C0465E0F3
:1026000070E080E090E00E94C01B28E14BE168E6AA
:1026100088EA93E00E949C0465E070E080E090E02E
:102620000E94C01B22E047E368E688EA93E00C942E
:102630009C042F923F924F925F926F927F928F9263
:102640009F92AF92BF92CF92DF92EF92FF920F9341
:102650001F93CF93DF93CDB7DEB760970FB6F89493
:10266000DEBF0FBECDBF8C0180E090E0A0E8BFE3ED
:10267000F801808B918BA28BB38B84879587A6877B
:10268000B78780879187A287B387118E108E178AAC
:10269000168A158A148A178262E370E080E090E05F
:1026A0000E94C01B21E140E06EE188EA93E00E94B5
:1026B0009C0420E441E06EE188EA93E00E949C04DF
:1026C00021E042E06EE188EA93E00E949C0464E627
:1026D00070E080E090E00E94C01BBE01695F7F4F08
:1026E000C8012CDEBAE03B2E412C512C3201812C4A
:1026F000912C5401C12CD12C760121E042E06EE1F5
:1027000088EA93E00E949C0464E670E080E090E038
:102710000E94C01BBE01695F7F4FC8010FDEEF81C1
:10272000F885CF01AA2797FDA095BA2F480E591E0C
:102730006A1E7B1E29853A85C901AA2797FDA095A7
:10274000BA2F880E991EAA1EBB1E8B859C85AC01D4
:10275000662757FD6095762FC40ED51EE61EF71E20
:10276000AC01281739070CF4A901E417F50724F484
:10277000E130F04FC4F011C02817390734F481E07C
:102780002130304F44F080E006C021E08130904F8E
:102790000CF020E0822F811106C03A9409F0ADCFF1
:1027A0002224239401C0212C22E140E06EE188EA3A
:1027B00093E00E949C04AAE03A2E21E042E06EE100
:1027C00088EA93E00E949C0464E670E080E090E078
:1027D000D7D7BE01695F7F4FC801B0DDEF81F885B3
:1027E000CF01AA2797FDA095BA2F481A590A6A0A5D
:1027F0007B0A29853A85C901AA2797FDA095BA2F9A
:10280000881A990AAA0ABB0A8B859C85AC0166279F
:1028100057FD6095762FC41AD50AE60AF70AAC016F
:10282000281739070CF4A901E417F50724F4E1305F
:10283000F04FB4F011C02817390734F481E021308B
:10284000304F44F080E006C021E08130904F0CF022
:1028500020E0822F811104C03A9409F0AECF01C06C
:10286000212CC301B2010E94CB249B01AC0160E08A
:1028700070EA84E996E40E943024DC01CB01BF7742
:10288000F80180879187A287B387C501B4010E94B0
:10289000CB249B01AC0160E070EA84E996E40E94DD
:1028A0003024DC01CB01BF77F80184879587A687A8
:1028B000B787C701B6010E94CB249B01AC0160E041
:1028C00070E68AE896E40E943024DC01CB01BF77F1
:1028D000F801808B918BA28BB38B20E740E06EE1F7
:1028E00088EA93E00E949C0420E241E06EE188EADD
:1028F00093E00E949C0420E042E06EE188EA93E0CD
:102900000E949C0464E670E080E090E039D72110DA
:1029100011C080E090E0A0E8BFE3F80180879187D4
:10292000A287B38784879587A687B787808B918B8B
:10293000A28BB38B81E0F8018783AE014F5F5F4FBD
:102940006A01F0E2EF2EF12CC7010E948F2AF601F6
:1029500081936F01FFEFEF1AFF0A36E2E316F104ED
:1029600099F789819A81F801958B848B8B819C8161
:10297000978B868B8D819E81918F808F60960FB60D
:10298000F894DEBF0FBECDBFDF91CF911F910F91A5
:10299000FF90EF90DF90CF90BF90AF909F908F907F
:1029A0007F906F905F904F903F902F900895CF92BF
:1029B000DF92EF92FF920F931F93CF93DF9300D09C
:1029C00000D0CDB7DEB77C0120E14CE168E688EAB3
:1029D00093E00E949C0420E24AE668E688EA93E0DD
:1029E0000E949C0420E047E368E688EA93E00E94A6
:1029F0009C042DE044E268E688EA93E00E949C048F
:102A00002EE945E268E688EA93E00E949C0423E010
:102A100046E268E688EA93E00E949C0426E847E2E2
:102A200068E688EA93E00E949C04CE0101966C015E
:102A300000E110E0C8010E948F2AF60181936F0126
:102A40000F5F1F4F06311105A9F789819A81F701A0
:102A5000928381838B819C81948383838D819E81EA
:102A60009683858326960FB6F894DEBF0FBECDBF42
:102A7000DF91CF911F910F91FF90EF90DF90CF905A
:102A80000895CF93DF93EC01188288EA93E00E94C7
:102A90005F04CE0193DDCE01CCDDCE01DF91CF917D
:102AA00086CFCF93DF93EC01842F6883498361E065
:102AB00084D761E08881DF91CF917FC7CF93DF9387
:102AC000EC0160E08881B2D784E190E090D661E0CB
:102AD0008881ACD784E190E0DF91CF9188C61F93C5
:102AE000CF93DF93EC0110E260E089819FD7CE01A4
:102AF000E5DF1150C9F7DF91CF911F910895EFCF16
:102B0000EECF862F8095881F8827881F880F66FF45
:102B100081600895CF92DF92EF92FF921F93CF933F
:102B2000DF93EC016A017B0110E2F7FE02C061E075
:102B300001C060E089817AD7CC0CDD1CEE1CFF1C43
:102B4000CE01BCDF115089F7DF91CF911F91FF902B
:102B5000EF90DF90CF900895AF92BF92CF92DF9227
:102B6000EF92FF920F931F93CF93DF931F92CDB7F6
:102B7000DEB75C01162FF42E622F2983C2DFC82E28
:102B80006F2DC501BEDF082F612FC501BADF412FB0
:102B900050E060E070E0706C5F292981622BD12CDD
:102BA000E12CF12C9CE1CC0CDD1CEE1CFF1C9A9559
:102BB000D1F74C295D296E297F2910E020E030E013
:102BC000EAE1000F111F221F331FEA95D1F7402BB6
:102BD000512B622B732B782BC5010F90DF91CF9176
:102BE0001F910F91FF90EF90DF90CF90BF90AF902B
:102BF00091CFFC01108211821382128214821582FD
:102C00001682178210861286118613861486158600
:102C100016861786118A108A128A138A148A158AD0
:102C2000168A108E178A118E128E138E148E158EA0
:102C300012A213A214A215A216A217A210AA11AAD8
:102C400012AA13AA14AA15AA16AE17AEDC01AC5B21
:102C5000BF4F1D921D921D921C92139718961C92A5
:102C600011961C92119716961D921D921D921C9200
:102C700019971E961C9211961C92119716961D92EA
:102C80001D921D921C9219971E961C9211961C92D1
:102C9000119716961D921D921D921C9219971E96C1
:102CA0001C9211961C92119716961D921D921D92C0
:102CB0001C9219971E961C9211961C92509682E0B7
:102CC0008C9311961C9211961C9211961C9211963F
:102CD00011961C921E92129611961C921E9212969A
:102CE0001D921D921D921C92139714961D921D9277
:102CF0001D921C92139714961D921D921D921C9268
:102D0000139714961D921D921D921C921397EA57C9
:102D1000FF4F108208952FEB260F862F992787FDEE
:102D20009095263010F4C79708956156663018F4D0
:102D3000875591090895C0970895FF920F931F93A7
:102D4000CF93DF93EC01FF24F39488818D3211F04F
:102D5000F12C01C02196CE010E949F299B01AC015C
:102D6000A4E6B0E00E943B26FE014991242F3327C0
:102D700027FD3095205331092A303105A8F34E3212
:102D800041F52181332727FD3095205331092A3021
:102D90003105F8F44AE0429F8001439F100D112451
:102DA000222717FD2095322F600F711F821F931F5E
:102DB0000281112707FD1095005311090A301105F2
:102DC00040F4222717FD2095322F600F711F821FBC
:102DD000931FFF2039F090958095709561957F4FF6
:102DE0008F4F9F4FDF91CF911F910F91FF900895CB
:102DF0002F923F924F925F926F927F928F929F920B
:102E0000AF92BF92CF92DF92EF92FF920F931F93F8
:102E1000CF93DF93D82FC92F8B010E949F2924E6DF
:102E200030E040E050E00E94DC2549015A019B015E
:102E3000AC0160E876E988E990E00E94BA256B0170
:102E40007C01F80191828082ED2FFC2F2191822F4D
:102E5000992787FD9095C0970A97C0F32E3239F5D0
:102E60001F0180E8882E86E9982E88E9A82EB12CCB
:102E70009AE0492E512C612C712CF101C1911F0156
:102E8000DD27C7FDD095E097CA30D10580F4C50194
:102E9000B401A30192010E94DC2549015A01DE011F
:102EA0000E944526C60ED71EE81EF91EE6CFA5E0F5
:102EB000B0E0A70196010E943B266F5F7F4F8F4FC6
:102EC0009F4F23E030E040E050E00E94DC25F80115
:102ED00022833383448355831682DF91CF911F91E0
:102EE0000F91FF90EF90DF90CF90BF90AF909F90A9
:102EF0008F907F906F905F904F903F902F900895AC
:102F0000CF93DF93EC0187E0FE017096DE0112960D
:102F100001900D928A95E1F787E0FE017796DE0138
:102F2000199601900D928A95E1F7FBD36E8F7F8FF2
:102F300088A399A381E089838883DF91CF91089545
:102F4000CF92DF92EF92FF92CF93DF93EC01198241
:102F50006A817B8180E090E00E94C9246B017C0142
:102F60006C817D818E819F810E94C92428E23BE68D
:102F70004EE65EE40E9430249B01AC01C701B6011D
:102F80000E94CC23288521119058DF91CF91FF908A
:102F9000EF90DF90CF900895CF92DF92EF92FF9263
:102FA000CF93DF93EC01198269857A8580E090E008
:102FB0000E94C9246B017C016B857C858D859E8573
:102FC0000E94C92428E23BE64EE65EE40E943024DB
:102FD0009B01AC01C701B6010E94CC232F852111B2
:102FE0009058DF91CF91FF90EF90DF90CF900895B0
:102FF000CF93DF93EC014E815F81688579854A83A9
:103000005B836C837D838DD36A877B878C879D8769
:1030100081E089838883DF91CF910895CF93DF93F7
:10302000EC014E815F81688579854A835B836C837F
:103030007D8377D36A877B878C879D8781E08983AF
:103040008883DF91CF910895CF93DF93EC01CB017B
:1030500074DE6E837F8388879987DF91CF9108958F
:10306000CF93DF93EC01CB010E949F296E837F8376
:1030700088879987DF91CF910895CF93DF93EC01F3
:103080004A855B856C857D854E835F8368877987FC
:1030900048D36A837B838C839D8381E08983888383
:1030A000DF91CF910895CF93DF93EC01CB0145DE03
:1030B0006A877B878C879D87DF91CF910895CF9317
:1030C000DF93EC014A855B856C857D854E835F834C
:1030D0006887798726D36A837B838C839D8381E08D
:1030E00089838883DF91CF910895CF93DF93EC019B
:1030F000CB010E949F296A877B878C879D87DF9100
:10310000CF910895CF93DF93EC01BC0140960E94CC
:10311000EA2907D368A379A38AA39BA381E08DA39F
:103120008CA3DF91CF91089540E150E00C94F129F8
:10313000AF92BF92CF92DF92FF920F931F93CF93E4
:10314000DF93EC01FC01EB57FF4FF080FF2009F407
:1031500090C031966081DFDD182FFE01E957FF4FE7
:103160006081CE01D8DD40E1149F800D1124FE0165
:10317000EC57FF4F908189136CC0B5964081518107
:10318000628173814F5F5F4F6F4F7F4F40835183E9
:10319000628373838E0108561F4FD8018C91882358
:1031A00069F0389740815181628173814F5F5F4F31
:1031B0006F4F7F4F4083518362837383FE01EB56D1
:1031C000FF4F80818823A9F0813041F5CE0182969E
:1031D0000FDFCE01C09622DFF80180818823F1F055
:1031E000CE018EDECE01CE9648DFCE01845B9F4FAE
:1031F00014C0CE01C09612DFD8018C91882331F023
:10320000CE017EDECE01865A9F4F37DFCE01885930
:103210009F4F55DFCE018A589F4F2FDF8E010556F5
:103220001F4FF801C081D181209709F4F7C0D80160
:10323000ED91FC9166A177A18EA19FA10E94E12949
:10324000892B09F0EBC0CE015DDF0AA4DBA5C02D00
:10325000EBCFCB55DF4F488159816A817B814F5F2E
:103260005F4F6F4F7F4F488359836A837B83F12C75
:10327000D5C06C01B6E9CB0ED11CF60130818B565E
:103280009F4F5C018E0105561F4F311134C06E01F6
:1032900096E8C90ED11C6EE273E0C6010E94E129D6
:1032A000892B11F481E00BC064E373E0C6010E9436
:1032B000E129892B19F4F501108203C082E0D501C0
:1032C0008C93C756DF4F88819981F8019183808361
:1032D000F801C081D181209709F4A0C0B6018EA168
:1032E0009FA10E94E12997FF94C08AA59BA5D801C0
:1032F0008D939C93EDCFDC01EC91E23009F45EC03C
:10330000CE018A579F4FDC012C91222309F456C02D
:10331000B0E2EB9FF0011124E32B3197E932F10584
:1033200008F04CC0E258FF4F0C941A26BC01CE01A5
:10333000C0968ADE43C0FE01E856FF4F81E021348B
:1033400051F52AC0BE01605F7F4F09C081E023357F
:1033500009F080E08E8B32C0BE01695E7F4F48DD90
:103360002DC081E0273509F080E08D8F27C0BC019A
:10337000CE01CE9622C0BC01CE01845B9F4F1DC002
:10338000BC01CE0182966CDE19C0FE01E856FF4FEB
:1033900081E021330CF480E0808310C0BC01CE01B9
:1033A00088599F4FA2DE0AC0BC01CE018A589F4FA8
:1033B00004C0BC01CE01865A9F4F75DEF801A08083
:1033C000B180CA57DF4FA114B10441F1D801ED918A
:1033D000FC9166A177A1F50186A197A10E94E12940
:1033E000892BE1F4D50198962D913C919997F6019E
:1033F000808190E0821793078CF02817390719F421
:10340000BE01C50191DED5019A96AD90BC909B9707
:10341000DACF892B19F0D8011D921C928F2DDF91E4
:10342000CF911F910F91FF90DF90CF90BF90AF9001
:103430000895CF92DF92EF92FF920F931F93CF9355
:10344000DF931F92CDB7DEB76C01262FFC01E35648
:10345000FF4F40815181628173814F5F5F4F6F4F9A
:103460007F4F40835183628373838C0109561F4FC2
:103470008B579F4F7C01243271F12CF42A3069F074
:103480002D30D9F50AC02A3241F02C32B1F5F601BF
:10349000EC57FF4F808182278083F80180818F3035
:1034A00058F4F601E80FF11DEA57FF4F1082C601EC
:1034B00029833EDE298101C080E0F601EA56FF4FF4
:1034C00090819F5F9083F801108291E02A3209F089
:1034D00090E0F70128C0F8011082F601EA56FF4F8C
:1034E000108272971082719682E08083F7011082B9
:1034F000F601E856FF4F108218C0F80180818E3027
:1035000048F491E0980F9083F601E80FF11DEA5717
:10351000FF4F2083F7018081811107C0F601EC572E
:10352000FF4F90819227908301C080E00F90DF9140
:10353000CF911F910F91FF90EF90DF90CF90089562
:1035400087E095E056CBCF93DF93EC0160E080E419
:1035500034D260E081E431D281E4B6D1BC01882765
:1035600077FD8095982F0E94CB24688779878A877A
:103570009B8780E4A9D1BC01882777FD8095982F8F
:103580000E94CB246C877D878E879F87DF91CF91A8
:103590000895CF92DF92EF92FF92CF93DF93EC01E9
:1035A00024EA30E74DE75FE36C857D858E859F8556
:1035B0000E9457256B017C0180E486D1BC018827DD
:1035C00077FD8095982F0E94CB2420E037ED43E2D1
:1035D0005CE30E9457259B01AC01C701B6010E9424
:1035E000CC236C877D878E879F872EE230E940EA67
:1035F0005BE30E94572520E030E040E250E40E9467
:10360000CB232DEC3CEC4CEC5DE30E943024688332
:1036100079838A839B8324EA30E74DE75FE36885FB
:1036200079858A859B850E9457256B017C0181E401
:103630004BD1BC01882777FD8095982F0E94CB2421
:1036400020E037ED43E25CE30E9457259B01AC018B
:10365000C701B6010E94CC23688779878A879B8738
:103660002EE230E940EA5BE30E9457252DEC36E874
:103670004CE45EE30E9430246C837D838E839F83C1
:10368000DF91CF91FF90EF90DF90CF9008951F9240
:103690000F920FB60F9211242F933F938F939F9306
:1036A000AF93BF938091C5059091C605A091C705C2
:1036B000B091C8053091C40523E0230F2D3720F4C5
:1036C0000196A11DB11D05C026E8230F0296A11D7C
:1036D000B11D2093C4058093C5059093C605A093A2
:1036E000C705B093C8058091C9059091CA05A091FE
:1036F000CB05B091CC050196A11DB11D8093C905E4
:103700009093CA05A093CB05B093CC05BF91AF9120
:103710009F918F913F912F910F900FBE0F901F900F
:1037200018952FB7F8946091C5057091C6058091E2
:10373000C7059091C8052FBF08953FB7F8948091B1
:10374000C9059091CA05A091CB05B091CC0526B5CD
:10375000A89B05C02F3F19F00196A11DB11D3FBFC9
:103760006627782F892F9A2F620F711D811D911D59
:1037700042E0660F771F881F991F4A95D1F7089579
:103780008F929F92AF92BF92CF92DF92EF92FF9271
:103790006B017C01D2DF4B015C01C114D104E10457
:1037A000F104E1F0F7D7C9DF681979098A099B09A3
:1037B000683E73408105910580F321E0C21AD1086B
:1037C000E108F10888EE880E83E0981EA11CB11C68
:1037D000C114D104E104F10431F7DFCFFF90EF9081
:1037E000DF90CF90BF90AF909F908F9008958230E0
:1037F000910538F0880F991F880F991F0597019739
:10380000F1F70895789484B5826084BD84B58160B1
:1038100084BD85B5826085BD85B5816085BDEEE6D8
:10382000F0E0808181608083E1E8F0E010828081B7
:1038300082608083808181608083E0E8F0E0808125
:1038400081608083E1EBF0E0808184608083E0EB45
:10385000F0E0808181608083E1E9F0E08081826036
:103860008083808181608083E0E9F0E080818160F5
:103870008083E1EAF0E080818260808380818160E2
:103880008083E0EAF0E0808181608083E1E2F1E022
:10389000808182608083808181608083E0E2F1E0CA
:1038A000808181608083EAE7F0E0808184608083AA
:1038B0008081826080838081816080838081806854
:1038C00080831092C1000895863308F086532091BA
:1038D0007B00982F9870277F922B90937B008770A6
:1038E0002091140290E4299F90011124822B80934F
:1038F0007C0080917A00806480937A0080917A00C5
:1039000086FDFCCF809178002091790090E0922B89
:10391000089590E0FC013197E231F10508F04CC0C8
:10392000E955FF4F0C941A26809180008F7703C0D1
:10393000809180008F7D8093800008958091800029
:10394000877FF9CF84B58F7702C084B58F7D84BD22
:1039500008958091B0008F7703C08091B0008F7D73
:103960008093B0000895809190008F7707C0809178
:1039700090008F7D03C080919000877F809390009E
:1039800008958091A0008F7707C08091A0008F7D5F
:1039900003C08091A000877F8093A000089580914C
:1039A00020018F7707C0809120018F7D03C0809117
:1039B0002001877F809320010895CF93DF9390E0CB
:1039C000FC01E854FE4F2491FC01E250FE4F84912B
:1039D000882349F190E0880F991FFC01E858FD4FBA
:1039E000A591B491825A9D4FFC01C591D4919FB786
:1039F000611108C0F8948C91209582238C93888162
:103A000082230AC0623051F4F8948C91322F3095A1
:103A100083238C938881822B888304C0F8948C91B3
:103A2000822B8C939FBFDF91CF9108950F931F93AB
:103A3000CF93DF931F92CDB7DEB7282F30E0F90187
:103A4000EE58FE4F8491F901E854FE4F1491F901AC
:103A5000E250FE4F04910023C1F0882319F06983DE
:103A600058DF6981E02FF0E0EE0FFF1FE25AFD4FB3
:103A7000A591B4919FB7F8948C91611103C01095F2
:103A8000812301C0812B8C939FBF0F90DF91CF9139
:103A90001F910F910895CF93DF93282F30E0F90104
:103AA000EE58FE4F8491F901E854FE4FD491F9018C
:103AB000E250FE4FC491CC2389F081112ADFEC2F14
:103AC000F0E0EE0FFF1FEC5BFD4FA591B4912C9140
:103AD0002D2381E090E021F480E002C080E090E0BE
:103AE000DF91CF910895FC01818D228D90E0805C63
:103AF0009F4F821B91098F7399270895FC01918D27
:103B0000828D981731F0828DE80FF11D858D90E040
:103B100008958FEF9FEF0895FC01918D828D981786
:103B200061F0828DDF01A80FB11D5D968C91928DA1
:103B30009F5F9F73928F90E008958FEF9FEF08959E
:103B400080E49FE1892B39F080E090E0892B19F027
:103B500097D1811124C08BEE9FE1892B39F080E051
:103B600090E0892B19F037D281111CC080E090E0E1
:103B7000892B41F080E090E0892B21F00E94000029
:103B8000811113C080E090E0892BA1F080E090E0EB
:103B9000892B81F00E94000081110AC008950E94C3
:103BA0000000D9CF0E940000E1CF0E940000EACFC0
:103BB0000C9400000895FC01848DDF01A80FB11D55
:103BC000A35ABF4F2C91848D90E001968F73992753
:103BD000848FA689B7892C93A089B1898C91806440
:103BE0008C93938D848D981306C00288F389E02D01
:103BF00080818F7D80830895CF93DF93EC01888D42
:103C00008823C1F0EA89FB89808185FD05C0A889E8
:103C1000B9898C9186FD0EC00FB607FCF5CF808167
:103C200085FFF2CFA889B9898C9185FFEDCFCE01B0
:103C3000C2DFE8CFDF91CF910895CF92DF92FF925C
:103C40000F931F93CF93DF931F92CDB7DEB76C0115
:103C500081E0D60158968C9358975B969C915B9720
:103C60005C968C915C97981307C05096ED91FC91EF
:103C70005197808185FD2DC0F601038D10E00F5F07
:103C80001F4F0F731127F02EF601848DF81210C00C
:103C90000FB607FCF9CFD6015096ED91FC915197E4
:103CA000808185FFF1CFC601698385DF6981ECCF13
:103CB000838DE80FF11DE35AFF4F6083D6015B96B9
:103CC0000C935B975296ED91FC91539780818062A3
:103CD0000CC0D6015696ED91FC9157976083509693
:103CE000ED91FC91519780818064808381E090E028
:103CF0000F90DF91CF911F910F91FF90DF90CF90A8
:103D00000895BF92CF92DF92EF92FF92CF93DF930D
:103D1000EC016A017B01B22EE889F98982E0808397
:103D2000411581EE58076105710599F060E079E071
:103D30008DE390E0A70196013FD721503109410959
:103D400051095695479537952795211580E13807F4
:103D500090F0E889F989108260E874E88EE190E0DB
:103D6000A701960129D721503109410951095695DA
:103D7000479537952795EC85FD853083EE85FF8542
:103D80002083188EEC89FD89B082EA89FB898081C5
:103D900080618083EA89FB89808188608083EA89E9
:103DA000FB89808180688083EA89FB8980818F7D9F
:103DB0008083DF91CF91FF90EF90DF90CF90BF9005
:103DC00008951F920F920FB60F9211240BB60F9207
:103DD0002F938F939F93EF93FF93E091DD05F091E5
:103DE000DE058081E091E305F091E40582FD12C0DB
:103DF00090818091E6058F5F8F732091E705821790
:103E000051F0E091E605F0E0E353FA4F958F80938F
:103E1000E60501C08081FF91EF919F918F912F91D5
:103E20000F900BBE0F900FBE0F901F9018951F9212
:103E30000F920FB60F9211240BB60F922F933F9350
:103E40004F935F936F937F938F939F93AF93BF93A2
:103E5000EF93FF938DEC95E0AEDEFF91EF91BF9174
:103E6000AF919F918F917F916F915F914F913F9112
:103E70002F910F900BBE0F900FBE0F901F901895B3
:103E80008DEC95E030DE21E0892B09F420E0822FD3
:103E900008951092D0051092CF0588EE93E0A0E02F
:103EA000B0E08093D1059093D205A093D305B09351
:103EB000D4058EE593E09093CE058093CD0585ECF7
:103EC00090E09093DA058093D90584EC90E090938C
:103ED000DC058093DB0580EC90E09093DE05809319
:103EE000DD0581EC90E09093E0058093DF0582ECA6
:103EF00090E09093E2058093E10586EC90E090934A
:103F0000E4058093E3051092E6051092E705109210
:103F1000E8051092E90508951F920F920FB60F92CF
:103F200011240BB60F922F938F939F93EF93FF93D0
:103F3000E0917A06F0917B068081E0918006F09115
:103F4000810682FD12C09081809183068F5F8F73FE
:103F500020918406821751F0E0918306F0E0E65943
:103F6000F94F958F8093830601C08081FF91EF9177
:103F70009F918F912F910F900BBE0F900FBE0F90BE
:103F80001F9018951F920F920FB60F9211240BB627
:103F90000F922F933F934F935F936F937F938F93E2
:103FA0009F93AF93BF93EF93FF938AE696E003DE70
:103FB000FF91EF91BF91AF919F918F917F916F9101
:103FC0005F914F913F912F910F900BBE0F900FBEBD
:103FD0000F901F9018958AE696E085DD21E0892BE9
:103FE00009F420E0822F089510926D0610926C065D
:103FF00088EE93E0A0E0B0E080936E0690936F06A9
:10400000A0937006B09371068EE593E090936B06D3
:1040100080936A068DEC90E0909377068093760605
:104020008CEC90E0909379068093780688EC90E091
:1040300090937B0680937A0689EC90E090937D06BE
:1040400080937C068AEC90E090937F0680937E06B6
:104050008EEC90E090938106809380061092830608
:10406000109284061092850610928606089508958F
:10407000C9DBFDDF0E94FE01C0EADDE10E946C02A7
:104080002097E1F35DDDFACFCF92DF92EF92FF92BE
:104090000F931F93CF93DF937C016A01EB0100E044
:1040A00010E00C151D0571F06991D701ED91FC919F
:1040B0000190F081E02DC7011995892B19F00F5F50
:1040C0001F4FEFCFC801DF91CF911F910F91FF904C
:1040D000EF90DF90CF9008956115710581F0DB01BD
:1040E0000D900020E9F7AD0141505109461B570BD7
:1040F000DC01ED91FC910280F381E02D199480E0C8
:1041000090E00895DC01ED91FC91DB0114964D9156
:104110005C9115976D917C910280F381E02D19944B
:104120006AE673E0D9CF0F931F93CF93DF93EC012F
:10413000E9DF8C01CE01F4DF800F911FDF91CF9179
:104140001F910F910895FC018081918174C6CF93D6
:10415000DF93EC0188819981009709F06CD6198270
:1041600018821D821C821B821A82DF91CF910895D2
:104170000F931F93CF93DF93EC018B016F5F7F4F02
:1041800088819981E7D6009731F0998388831B83D2
:104190000A8381E001C080E0DF91CF911F910F91F0
:1041A0000895CF93DF93EC0188819981892B29F0C1
:1041B0008A819B818617970758F4CE01D9DF88231F
:1041C00041F08C819D81892B19F4E881F98110825D
:1041D00081E0DF91CF910895EF92FF920F931F93AB
:1041E000CF93DF93EC017B018A01BA01DADF811101
:1041F00003C0CE01ACDF07C01D830C83B7018881EB
:1042000099810E94EA29CE01DF91CF911F910F91F0
:10421000FF90EF900895FC011182108213821282A8
:10422000158214826115710551F0FB010190002087
:10423000E9F7AF0141505109461B570BCDCF089507
:104240000F931F93CF93DF938C01EB01FC018081CF
:104250009181009791F0428153812C813D814217D9
:10426000530750F0688179810E94EA298C819D81F1
:10427000F8019583848312C0DED588819981F80185
:10428000918380838A819B81938382838C819D81AA
:1042900095838483198218821B821A821D821C8254
:1042A000DF91CF911F910F910895CF93DF93EC0190
:1042B0008617970709F0C4DFCE01DF91CF910895EB
:1042C000CF93DF93EC016115710559F0FB0101906B
:1042D0000020E9F7AF0141505109461B570B7CDF25
:1042E00001C035DFCE01DF91CF9108950F931F9369
:1042F000CF93DF93CDB7DEB729970FB6F894DEBF23
:104300000FBECDBF8C01862FF8011182108213825F
:1043100012821582148250E0BE016F5F7F4F90E0E1
:104320000E946C2ABE016F5F7F4FC801C9DF2996CA
:104330000FB6F894DEBF0FBECDBFDF91CF911F91B6
:104340000F9108950F931F93CF93DF93CDB7DEB7EF
:1043500062970FB6F894DEBF0FBECDBF8C01CB01C4
:10436000F80111821082138212821582148250E0A9
:10437000BE016F5F7F4F0E94002ABE016F5F7F4FBB
:10438000C8019EDF62960FB6F894DEBF0FBECDBFA8
:10439000DF91CF911F910F9108950F931F93CF93AA
:1043A000DF93CDB7DEB7A2970FB6F894DEBF0FBE8E
:1043B000CDBF8C01CB01BA01F801118210821382AA
:1043C00012821582148230E0AE014F5F5F4F0E946F
:1043D000142ABE016F5F7F4FC80172DFA2960FB62D
:1043E000F894DEBF0FBECDBFDF91CF911F910F912B
:1043F00008950F931F93CF93DF93CDB7DEB7A197A7
:104400000FB6F894DEBF0FBECDBF8C01CB01BA0151
:10441000F80111821082138212821582148230E018
:10442000AE014F5F5F4F0E94412ABE016F5F7F4F19
:10443000C80146DFA1960FB6F894DEBF0FBECDBF10
:10444000DF91CF911F910F910895EF92FF920F93FB
:104450001F93CF93DF93CDB7DEB7A1970FB6F89434
:10446000DEBF0FBECDBF7C01CB01BA01F7011182C7
:104470001082138212821582148242E0420F8E0152
:104480000F5F1F4F20D4BC01C7011ADFA1960FB6E2
:10449000F894DEBF0FBECDBFDF91CF911F910F917A
:1044A000FF90EF900895EF92FF920F931F93CF9399
:1044B000DF93CDB7DEB7A1970FB6F894DEBF0FBE7E
:1044C000CDBF7C01CB01BA01F701118210821382AA
:1044D00012821582148242E0420F8E010F5F1F4F3D
:1044E000F2D3BC01C701ECDEA1960FB6F894DEBF93
:1044F0000FBECDBFDF91CF911F910F91FF90EF9035
:104500000895EF92FF920F931F93CF93DF93EC01E7
:104510007B010C811D816115710511F480E014C0CF
:104520004115510581F0040F151FB8013ADE8823AB
:10453000A9F3288139818C819D81B701820F931F56
:1045400049D71D830C8381E0DF91CF911F910F919B
:10455000FF90EF900895FB01448155816081718146
:10456000D0CF6115710551F0FB0101900020E9F7F2
:10457000AF0141505109461B570BC3CF80E008954E
:10458000CF93DF931F921F92CDB7DEB769831A8254
:1045900041E050E0BE016F5F7F4FB3DF0F900F909F
:1045A000DF91CF910895CF93DF93DC01ED91FC91E2
:1045B000EB01A881B981309711F01097C9F41097D9
:1045C00059F0EB012C813D81232B31F08C9190E04F
:1045D00091958195910913C0309779F0DC0114967B
:1045E0008D919C911597892B41F0808190E007C0B7
:1045F000BD01CF01DF91CF91E4C680E090E0DF9173
:10460000CF910895FC0144815581FB0124813581BE
:104610004217530739F4C7DF21E0892B09F020E066
:10462000822F089580E00895FC0124813581232B99
:1046300031F421E06115710599F0FB0108C0FC011E
:10464000808191816115710531F421E0FC01808147
:10465000882331F004C0B5D621E0892B09F020E091
:10466000822F0895CF93DF93FC01848195814817B1
:10467000590770F4C081D181772767FD7095CE010D
:10468000840F951F93D6009719F08C1B9D0B02C0C9
:104690008FEF9FEFDF91CF91089540E050E0E2CFA0
:1046A000BF92CF92DF92EF92FF920F931F93CF931F
:1046B000DF936C017B01EA0189012417350720F49F
:1046C0008D2FE901042F182F6CE673E0C601A3DDDE
:1046D000D70114968D919C911597C817D907C0F4EE
:1046E0008017910708F48C01D701ED91FC91119787
:1046F000E00FF11FB08010826D917C916C0F7D1FD7
:10470000C601DEDDD701ED91FC91E00FF11FB08213
:10471000C601DF91CF911F910F91FF90EF90DF9035
:10472000CF90BF900895CF93DF93EC01CB012C8104
:104730003D816217730708F541155105F1F0B90184
:10474000681B790B4617570708F4BA01E881F9810D
:10475000261B370B3D832C83A901481B590B680F7F
:10476000791F6E0F7F1F8E0F9F1F3BD6E881F98147
:104770008C819D81E80FF91F1082DF91CF91089500
:10478000FC0180819181009709F0D9C560E070E05B
:10479000CB01089508955058BB27AA270ED04DC1CC
:1047A0003ED130F043D120F031F49F3F11F41EF49C
:1047B00033C10EF4E095E7FB29C1E92F4FD180F317
:1047C000BA17620773078407950718F071F49EF50E
:1047D00067C10EF4E0950B2EBA2FA02D0B01B90185
:1047E00090010C01CA01A0011124FF27591B99F067
:1047F000593F50F4503E68F11A16F040A22F232F73
:10480000342F4427585FF3CF469537952795A795C2
:10481000F0405395C9F77EF41F16BA0B620B730B69
:10482000840BBAF09150A1F0FF0FBB1F661F771FDA
:10483000881FC2F70EC0BA0F621F731F841F48F48F
:10484000879577956795B795F7959E3F08F0B3CF15
:104850009395880F08F09927EE0F979587950895FF
:104860000CD0EBC0E3D040F0DAD030F021F45F3F61
:1048700019F0CCC0511115C1CFC0F0D098F39923D5
:10488000C9F35523B1F3951B550BBB27AA27621714
:104890007307840738F09F5F5F4F220F331F441F59
:1048A000AA1FA9F333D00E2E3AF0E0E830D0915091
:1048B0005040E695001CCAF729D0FE2F27D0660F7E
:1048C000771F881FBB1F261737074807AB07B0E8BD
:1048D00009F0BB0B802DBF01FF2793585F4F2AF0D3
:1048E0009E3F510568F092C0DCC05F3FECF3983EFC
:1048F000DCF3869577956795B795F7959F5FC9F730
:10490000880F911D9695879597F90895E1E0660FB8
:10491000771F881FBB1F621773078407BA0720F031
:10492000621B730B840BBA0BEE1F88F7E09508959A
:1049300004D06894B111B5C0089598D088F09F57FD
:1049400090F0B92F9927B751A0F0D1F0660F771FDB
:10495000881F991F1AF0BA95C9F712C0B13081F0BB
:104960009FD0B1E008959CC0672F782F8827B85F4B
:1049700039F0B93FCCF3869577956795B395D9F71C
:104980003EF490958095709561957F4F8F4F9F4F26
:104990000895E89409C097FB3EF490958095709532
:1049A00061957F4F8F4F9F4F9923A9F0F92F96E97B
:1049B000BB279395F695879577956795B795F111F0
:1049C000F8CFFAF4BB0F11F460FF1BC06F5F7F4F8D
:1049D0008F4F9F4F16C0882311F096E911C077239F
:1049E00021F09EE8872F762F05C0662371F096E8A8
:1049F000862F70E060E02AF09A95660F771F881F77
:104A0000DAF7880F9695879597F9089597F99F6734
:104A100080E870E060E008959FEF80EC0895002446
:104A20000A941616170618060906089500240A9413
:104A300012161306140605060895092E0394000C99
:104A400011F4882352F0BB0F40F4BF2B11F460FF28
:104A500004C06F5F7F4F8F4F9F4F089557FD905851
:104A6000440F551F59F05F3F71F04795880F97FB32
:104A7000991F61F09F3F79F08795089512161306EC
:104A80001406551FF2CF4695F1DF08C0161617061B
:104A90001806991FF1CF8695710561050894089550
:104AA000E894BB2766277727CB0197F908950BD0A9
:104AB000C4CFB5DF28F0BADF18F0952309F0A6CFF0
:104AC000ABCF1124EECFCADFA0F3959FD1F3950FA2
:104AD00050E0551F629FF001729FBB27F00DB11D82
:104AE000639FAA27F00DB11DAA1F649F6627B00D12
:104AF000A11D661F829F2227B00DA11D621F739FFB
:104B0000B00DA11D621F839FA00D611D221F749F08
:104B10003327A00D611D231F849F600D211D822F4F
:104B2000762F6A2F11249F5750408AF0E1F0882396
:104B30004AF0EE0FFF1FBB1F661F771F881F9150A3
:104B40005040A9F79E3F510570F060CFAACF5F3F5C
:104B5000ECF3983EDCF3869577956795B795F795D6
:104B6000E7959F5FC1F7FE2B880F911D969587955E
:104B700097F90895DB018F939F937DD0BF91AF91FB
:104B8000A29F800D911DA39F900DB29F900D1124A7
:104B9000089597FB072E16F4009406D077FD08D0F1
:104BA0007ED007FC05D03EF4909581959F4F0895E7
:104BB000709561957F4F0895A1E21A2EAA1BBB1B29
:104BC000FD010DC0AA1FBB1FEE1FFF1FA217B307D9
:104BD000E407F50720F0A21BB30BE40BF50B661FEF
:104BE000771F881F991F1A9469F7609570958095B3
:104BF00090959B01AC01BD01CF010895052E97FB57
:104C000016F400940FD057FD05D0D6DF07FC02D074
:104C100046F408C050954095309521953F4F4F4F31
:104C20005F4F089590958095709561957F4F8F4F58
:104C30009F4F0895EE0FFF1F0590F491E02D1994FA
:104C400005D0332312F48A1B9B0B10C0A29FB00126
:104C5000B39FC001A39F700D811D1124911DB29FB0
:104C6000700D811D1124911D0895F0DFB7FF089587
:104C7000821B930B0895EADFA59F900DB49F900DC2
:104C8000A49F800D911D11240895B7FFF4CFF3DF89
:104C9000821B930B08950790F691E02D1994AA1B9F
:104CA000BB1B51E107C0AA1FBB1FA617B70710F017
:104CB000A61BB70B881F991F5A95A9F78095909549
:104CC000BC01CD010895EF920F931F93CF93DF9313
:104CD000E80147FF02C034E101C034E0E42FFF27C0
:104CE000E7FDF095F7FF03C0F195E195F109E32E9B
:104CF000022F2E2FAE0129D4CE01DF91CF911F912B
:104D00000F91EF900895CF93DF938230910510F4C7
:104D100082E090E0E0910907F0910A0720E030E09E
:104D2000A0E0B0E0309739F1408151814817590730
:104D3000B8F04817590771F482819381109729F0D0
:104D400013969C938E9312972CC090930A0780938E
:104D5000090727C02115310531F04217530718F014
:104D6000A901DB0101C0EF019A01BD01DF01028051
:104D7000F381E02DD7CF21153105F9F0281B390B30
:104D80002430310580F48A819B816115710521F001
:104D9000FB019383828304C090930A0780930907E1
:104DA000FE01329644C0FE01E20FF31F81939193FE
:104DB00022503109398328833AC020910707309166
:104DC0000807232B41F42091020230910302309313
:104DD0000807209307072091000230910102211556
:104DE000310541F42DB73EB74091040250910502C0
:104DF000241B350BE0910707F0910807E217F30732
:104E0000A0F42E1B3F0B2817390778F0AC014E5F3A
:104E10005F4F2417350748F04E0F5F1F5093080768
:104E2000409307078193919302C0E0E0F0E0CF0147
:104E3000DF91CF910895CF93DF93009709F487C056
:104E4000FC01329713821282C0910907D0910A07A0
:104E5000209781F420813181280F391F8091070725
:104E6000909108078217930779F5F0930807E0936C
:104E700007076DC0DE0120E030E0AE17BF0750F439
:104E800012964D915C9113979D014115510509F1C1
:104E9000DA01F3CFB383A28340815181840F951F40
:104EA0008A179B0771F48D919C911197840F951F20
:104EB00002969183808312968D919C911397938390
:104EC00082832115310529F4F0930A07E09309073D
:104ED0003EC0D9011396FC93EE9312974D915D91CC
:104EE000A40FB51FEA17FB0779F480819181840F25
:104EF000951F0296D90111969C938E93828193817E
:104F000013969C938E931297E0E0F0E08A819B8148
:104F1000009719F0FE01EC01F9CFCE01029628812D
:104F20003981820F931F20910707309108072817B6
:104F3000390769F4309729F410920A07109209078B
:104F400002C013821282D0930807C0930707DF9133
:104F5000CF9108956F927F928F929F92AF92BF925E
:104F6000CF92DF92EF92FF920F931F93CF93DF9335
:104F7000EC01CB01209779F4DF91CF911F910F9134
:104F8000FF90EF90DF90CF90BF90AF909F908F9069
:104F90007F906F90B8CEFE01E60FF71F9E01225062
:104FA0003109E217F30708F4A8C0D9010D911C914B
:104FB000119706171707B0F00530110508F49BC0CC
:104FC000A801445051094617570708F494C00250ED
:104FD0001109061B170B019311936D937C93CF015D
:104FE0002ADF89C05B01A01AB10A4E01800E911E12
:104FF000A0910907B0910A07612C712C60E070E064
:10500000109709F449C0A815B905C9F5ED90FC90B1
:105010001197670142E0C40ED11CCA14DB0478F179
:1050200047018A189B08640142E0C40ED11C129605
:10503000BC9012971396AC91B5E0CB16D10440F01A
:10504000B282A38391828082D9018D939C9309C0FF
:105050000E5F1F4F0E0D1F1DF90111830083EB2DF5
:10506000FA2F6115710531F0DB011396FC93EE9375
:10507000129741C0F0930A07E09309073CC06D9175
:105080007C9111976616770608F43B01BD011296D4
:105090000D90BC91A02DB4CF6091070770910807C7
:1050A00068157905E9F468167906D0F44091000294
:1050B000509101024115510541F44DB75EB7609121
:1050C000040270910502461B570BE417F507A8F47C
:1050D000F0930807E0930707F901918380830BC0E1
:1050E00012DE7C01009749F0A801BE0156D1CE0125
:1050F000A2DEC70104C0CE0102C080E090E0DF91D3
:10510000CF911F910F91FF90EF90DF90CF90BF90C4
:10511000AF909F908F907F906F9008952F923F92C5
:105120005F926F927F928F929F92AF92BF92CF9237
:10513000DF92EF92FF920F931F93CF93DF938B0138
:10514000EA016115710521F0DB018C9311969C93A6
:10515000209739F09E01225031092332310508F0A1
:10516000D5C07C016701BFEFCB1ADB0A5601F701FE
:105170006080862D90E009D1892B11F07601F2CF65
:10518000FDE26F120AC0570182E0A80EB11CD701E0
:1051900011966C90772473940BC0BBE26B1207C01E
:1051A0005701E2E0AE0EB11CD70111966C90712C44
:1051B000CE018F7E892B89F4B0E36B1236C0F501E6
:1051C00080818F7D8835D1F46180F2E0AF0EB11C13
:1051D000872D8260782EC0E1D0E0CA30D10549F138
:1051E000C031D10521F0C830D10599F409C0CC24D3
:1051F000CA94DC2CEC2CAFE0FA2E21C0209769F782
:10520000C8E0D0E0CC24CA94DC2CEC2CFFE1FF2ECB
:1052100016C06FEF7FEFCB019E01442737FD40950D
:10522000542FCADC69017A010AC02097B1F6CAE09E
:10523000D0E0E9E9CE2EDC2CEC2CE9E1FE2EF501E4
:1052400060E020E030E0A9014E01AA2497FCA09480
:10525000BA2C1F0170ED572E560CA9E0A51570F45D
:105260008FEB860D8A3118F499EC592E06C08FE920
:10527000860D8A3140F589EA582E560C852D90E02E
:105280008C179D0704F56F3FD1F0C216D306E406D4
:10529000F50690F0C501B4016DDC9B01AC01852DD4
:1052A00090E0A0E0B0E0280F391F4A1F5B1F2817CD
:1052B00039074A075B0710F46FEF01C061E03196D0
:1052C000D1016C90C6CF0115110551F0662311F084
:1052D000319703C071FE04C03297D801ED93FC935F
:1052E00070FE07C050954095309521953F4F4F4F28
:1052F0005F4F67FF10C082E290E090930C078093AD
:105300000B076FEF7FEF8FEF9FEF07C060E070E05C
:1053100080E090E002C0B901CA01DF91CF911F91F6
:105320000F91FF90EF90DF90CF90BF90AF909F9044
:105330008F907F906F905F903F902F9008951F9374
:10534000FC0199278827BC01E89411911032E9F3F8
:10535000193010F01E30C8F31B3249F01D3241F4F1
:10536000689405C079D0610F711D811D911D119147
:1053700010531A30B8F33EF490958095709561956E
:105380007F4F8F4F9F4F1F910895911133C38032EC
:1053900019F089508550D0F70895FB01DC0102C057
:1053A00001900D9241505040D8F70895FC01819131
:1053B000861721F08823D9F7992708953197CF01CF
:1053C0000895FB01DC018D91019080190110D9F342
:1053D000990B0895FB01DC0101900D920020E1F78B
:1053E0000895FB01DC014150504048F001900D92BE
:1053F0000020C9F701C01D9241505040E0F70895C8
:105400004532510518F4423008F004C0FB01108207
:10541000CB010895BB274A3031F4992322F4BDE231
:10542000909581959F4F63C02532310518F4223045
:1054300008F004C0FA011082CA010895BB272A307F
:1054400051F4992342F4BDE2909580957095619551
:105450007F4F8F4F9F4F20C0592F482F372F262F18
:10546000660F771F881F991F660F771F881F991F68
:10547000620F731F841F951F660F771F881F991F68
:1054800008952532310518F4223008F004C0FA01DD
:105490001082CA010895BB27FA01A62F6217710571
:1054A00081059105330B30FB66F0AA27660F771F45
:1054B000881F991FAA1FA21710F0A21B63953850CE
:1054C000A9F7A05DAA3308F0A95DA19336F7B11141
:1054D000B1931082CA0191C24532510518F442308D
:1054E00008F004C0FB011082CB010895BB27FB012B
:1054F0005527AA27880F991FAA1FA41710F0A41BCD
:1055000083955051B9F7A05DAA3308F0A95DA19326
:10551000009779F7B111B1931192CB016EC2F9994D
:10552000FECF92BD81BDF89A992780B50895262FA8
:10553000F999FECF1FBA92BD81BD20BD0FB6F89478
:10554000FA9AF99A0FBE019608956F927F929F92F0
:10555000AF92BF92CF92DF92EF92FF920F931F9381
:10556000CF93DF93CDB7DEB729970FB6F894DEBFA0
:105570000FBECDBF6A01B22E102F0C3320F4FF24D2
:10558000F394F00E02C04CE3F42E0F2D27E0AE0191
:105590004F5F5F4F57D17981272F2970213031F02C
:1055A000E1FC06C0E0FC06C060E005C06DE203C09F
:1055B0006BE201C060E2AE2DA07173FF36C06623BE
:1055C00011F084E001C083E08B1510F4B81A01C01B
:1055D000B12CA1110BC0F6018B2D90E2882319F09C
:1055E00091938150FBCFCB0CD11CB12C662331F0B1
:1055F000F601608396012F5F3F4F6901C601039654
:10560000E2FE05C02EE4F601208331E404C02EE65C
:10561000F601208331E631832283FC012B2D30E219
:105620002223F1F131932150FBCF72FF40C066235A
:1056300011F084E001C083E08B1510F4B81A01C0AA
:10564000B12CA1110BC0F6018B2D90E2882319F02B
:1056500091938150FBCFCB0CD11CB12C662331F040
:10566000F601608396012F5F3F4F6901C6010396E3
:10567000E2FE07C029E4F60120832EE4218326E41C
:1056800006C029E6F60120832EE6218326E6228342
:10569000FC012B2D30E2222319F031932150FBCF56
:1056A000FC01EB0DF11D10828EEF9FEFB7C0B1E052
:1056B000611101C0B0E04B2F50E01816190624F418
:1056C0009C012F5F3F4F02C021E030E0240F351FC7
:1056D000112329F0412F50E04F5F5F4F02C040E09F
:1056E00050E0420F531F2B2D30E04217530714F4A4
:1056F000B41A01C0B12C2E2D287159F4F6012B2DAE
:1057000030E2222319F031932150FBCFCB0CD11C76
:10571000B12CBB2331F0F601608396012F5F3F4F20
:105720006901A1110BC0F6012B2D30E3222319F0E2
:1057300031932150FBCFCB0CD11CB12CF80E0A8138
:10574000372F3071A32E74FF03C0013309F4FA948C
:105750001F142CF42F2D293018F028E001C021E06F
:10576000682F392F97FF02C060E030E0462F532F9B
:10577000612C712C3EE2932EBC01621B71099B01CE
:10578000DC01A41BB50BE1E0F0E0EC0FFD1FAE0F58
:10579000BF1FE12EF12CF194E194F1084F3FFFEF90
:1057A0005F0731F4F6019082B6016F5F7F4F6B01A6
:1057B000841795074CF02417350734F4BD01660DA6
:1057C000771DFB01118101C010E341505109FFEF2A
:1057D0006F1A7F0AB6016F5F7F4F4E155F0524F089
:1057E000F60110836B01DACF4817590739F40633F5
:1057F00020F4053319F4A11001C011E3F601108360
:10580000FB018B2D90E2882319F091938150FBCFFF
:10581000FB01EB0DF11D108280E090E029960FB6A0
:10582000F894DEBF0FBECDBFDF91CF911F910F91D6
:10583000FF90EF90DF90CF90BF90AF909F907F90C0
:105840006F900895283008F027E03327DA01990F88
:10585000311D87FD916000966105710539F4326054
:105860002E5F3D9330E32A95E1F708959F3F30F096
:1058700080387105610509F03C5F3C5F3D939130D4
:1058800008F08068911DDF93CF931F930F93FF92D1
:10589000EF92192F987F9695E92F96959695E90F97
:1058A000FF27E451FD4F99273327EE24FF24A7015A
:1058B000E70105900894079428F4360FE71EF81EB8
:1058C000491F511D660F771F881F991F0694A1F766
:1058D0000590079428F4E70EF81E491F561FC11DB6
:1058E000770F881F991F661F0694A1F705900794EC
:1058F00028F4F80E491F561FC71FD11D880F991F86
:10590000661F771F0694A1F70590079420F4490FAE
:10591000561FC71FD81F990F661F771F881F069431
:10592000A9F784911095177041F0D695C7955795B2
:105930004795F794E7941A95C1F7E2E9F2E0689485
:105940001590159135916591959105907FE273952C
:10595000E118F10A430B560BC90BD009C0F7E10C53
:10596000F11E431F561FC91FD01D7EF4703311F462
:105970008A95E6CFE894015030F0080F0AF400272A
:10598000021708F4202F2395022F7A3328F079E3A9
:105990007D932A95E9F710C07D932A9589F60694A0
:1059A00097956795379517951794E118F10A430B6A
:1059B000560BC90BD00998F023957E9173957A33D5
:1059C00008F070E37C932013B8F77E9170617D93AB
:1059D00030F0839571E37D9370E32A95E1F711240C
:1059E000EF90FF900F911F91CF91DF91992787FD45
:1059F00090950895992788270895DC01FC01672F69
:105A000071917723E1F7329704C07C916D93708395
:105A10006291AE17BF07C8F3089513E0C6E9D3E05B
:105A200000E005C022970109FE010BBF34D9C83937
:0C5A3000D10780E00807B1F7F894FFCF21
:105A3C0000000D07800000000000000000000100C5
:105A4C00000000020124617264752C002A003000F1
:105A5C004750535F4C4154004750535F4C4F4E00DE
:105A6C004750535F47524F554E445F535045454442
:105A7C005F4B4E4F5453004750535F47524F554E58
:105A8C00445F53504545445F4B4D48004750535F6E
:105A9C0047524F554E445F434F5552534500475064
:105AAC00535F4E554D5F53415453004750535F481D
:105ABC00444F5000494D555F524F4C4C00494D5589
:105ACC005F504954434800494D555F48454144494E
